{
  "contractName": "Land",
  "abi": [
    {
      "inputs": [],
      "payable": false,
      "stateMutability": "nonpayable",
      "type": "constructor"
    },
    {
      "anonymous": false,
      "inputs": [
        {
          "indexed": true,
          "internalType": "uint256",
          "name": "landId",
          "type": "uint256"
        },
        {
          "indexed": true,
          "internalType": "address",
          "name": "owner",
          "type": "address"
        },
        {
          "indexed": false,
          "internalType": "uint256",
          "name": "timestamp",
          "type": "uint256"
        }
      ],
      "name": "LandAdded",
      "type": "event"
    },
    {
      "anonymous": false,
      "inputs": [
        {
          "indexed": true,
          "internalType": "uint256",
          "name": "reqId",
          "type": "uint256"
        },
        {
          "indexed": true,
          "internalType": "address",
          "name": "buyer",
          "type": "address"
        },
        {
          "indexed": false,
          "internalType": "uint256",
          "name": "landId",
          "type": "uint256"
        },
        {
          "indexed": false,
          "internalType": "uint256",
          "name": "timestamp",
          "type": "uint256"
        }
      ],
      "name": "LandRequested",
      "type": "event"
    },
    {
      "anonymous": false,
      "inputs": [
        {
          "indexed": true,
          "internalType": "uint256",
          "name": "landId",
          "type": "uint256"
        },
        {
          "indexed": true,
          "internalType": "address",
          "name": "newOwner",
          "type": "address"
        },
        {
          "indexed": false,
          "internalType": "uint256",
          "name": "timestamp",
          "type": "uint256"
        }
      ],
      "name": "OwnershipTransferred",
      "type": "event"
    },
    {
      "anonymous": false,
      "inputs": [
        {
          "indexed": true,
          "internalType": "address",
          "name": "buyer",
          "type": "address"
        },
        {
          "indexed": true,
          "internalType": "address",
          "name": "seller",
          "type": "address"
        },
        {
          "indexed": false,
          "internalType": "uint256",
          "name": "reqId",
          "type": "uint256"
        },
        {
          "indexed": false,
          "internalType": "uint256",
          "name": "amount",
          "type": "uint256"
        }
      ],
      "name": "PaymentDone",
      "type": "event"
    },
    {
      "anonymous": false,
      "inputs": [
        {
          "indexed": false,
          "internalType": "address",
          "name": "_id",
          "type": "address"
        }
      ],
      "name": "Rejected",
      "type": "event"
    },
    {
      "anonymous": false,
      "inputs": [
        {
          "indexed": true,
          "internalType": "uint256",
          "name": "reqId",
          "type": "uint256"
        },
        {
          "indexed": true,
          "internalType": "address",
          "name": "seller",
          "type": "address"
        },
        {
          "indexed": false,
          "internalType": "uint256",
          "name": "timestamp",
          "type": "uint256"
        }
      ],
      "name": "RequestApproved",
      "type": "event"
    },
    {
      "anonymous": false,
      "inputs": [
        {
          "indexed": true,
          "internalType": "address",
          "name": "user",
          "type": "address"
        },
        {
          "indexed": false,
          "internalType": "string",
          "name": "role",
          "type": "string"
        },
        {
          "indexed": false,
          "internalType": "uint256",
          "name": "timestamp",
          "type": "uint256"
        }
      ],
      "name": "UserRegistered",
      "type": "event"
    },
    {
      "anonymous": false,
      "inputs": [
        {
          "indexed": false,
          "internalType": "address",
          "name": "_id",
          "type": "address"
        }
      ],
      "name": "Verified",
      "type": "event"
    },
    {
      "constant": true,
      "inputs": [
        {
          "internalType": "address",
          "name": "",
          "type": "address"
        }
      ],
      "name": "BuyerMapping",
      "outputs": [
        {
          "internalType": "address",
          "name": "id",
          "type": "address"
        },
        {
          "internalType": "string",
          "name": "name",
          "type": "string"
        },
        {
          "internalType": "uint256",
          "name": "age",
          "type": "uint256"
        },
        {
          "internalType": "string",
          "name": "city",
          "type": "string"
        },
        {
          "internalType": "string",
          "name": "email",
          "type": "string"
        },
        {
          "internalType": "string",
          "name": "verificationId",
          "type": "string"
        },
        {
          "internalType": "string",
          "name": "documentHash",
          "type": "string"
        }
      ],
      "payable": false,
      "stateMutability": "view",
      "type": "function"
    },
    {
      "constant": true,
      "inputs": [
        {
          "internalType": "address",
          "name": "",
          "type": "address"
        }
      ],
      "name": "BuyerRejection",
      "outputs": [
        {
          "internalType": "bool",
          "name": "",
          "type": "bool"
        }
      ],
      "payable": false,
      "stateMutability": "view",
      "type": "function"
    },
    {
      "constant": true,
      "inputs": [
        {
          "internalType": "address",
          "name": "",
          "type": "address"
        }
      ],
      "name": "BuyerVerification",
      "outputs": [
        {
          "internalType": "bool",
          "name": "",
          "type": "bool"
        }
      ],
      "payable": false,
      "stateMutability": "view",
      "type": "function"
    },
    {
      "constant": true,
      "inputs": [
        {
          "internalType": "uint256",
          "name": "",
          "type": "uint256"
        }
      ],
      "name": "InspectorMapping",
      "outputs": [
        {
          "internalType": "uint256",
          "name": "id",
          "type": "uint256"
        },
        {
          "internalType": "string",
          "name": "name",
          "type": "string"
        },
        {
          "internalType": "uint256",
          "name": "age",
          "type": "uint256"
        },
        {
          "internalType": "string",
          "name": "designation",
          "type": "string"
        }
      ],
      "payable": false,
      "stateMutability": "view",
      "type": "function"
    },
    {
      "constant": true,
      "inputs": [
        {
          "internalType": "uint256",
          "name": "",
          "type": "uint256"
        }
      ],
      "name": "LandOwner",
      "outputs": [
        {
          "internalType": "address",
          "name": "",
          "type": "address"
        }
      ],
      "payable": false,
      "stateMutability": "view",
      "type": "function"
    },
    {
      "constant": true,
      "inputs": [
        {
          "internalType": "uint256",
          "name": "",
          "type": "uint256"
        }
      ],
      "name": "LandVerification",
      "outputs": [
        {
          "internalType": "bool",
          "name": "",
          "type": "bool"
        }
      ],
      "payable": false,
      "stateMutability": "view",
      "type": "function"
    },
    {
      "constant": true,
      "inputs": [],
      "name": "Land_Inspector",
      "outputs": [
        {
          "internalType": "address",
          "name": "",
          "type": "address"
        }
      ],
      "payable": false,
      "stateMutability": "view",
      "type": "function"
    },
    {
      "constant": true,
      "inputs": [
        {
          "internalType": "uint256",
          "name": "",
          "type": "uint256"
        }
      ],
      "name": "PaymentReceived",
      "outputs": [
        {
          "internalType": "bool",
          "name": "",
          "type": "bool"
        }
      ],
      "payable": false,
      "stateMutability": "view",
      "type": "function"
    },
    {
      "constant": true,
      "inputs": [
        {
          "internalType": "address",
          "name": "",
          "type": "address"
        }
      ],
      "name": "RegisteredAddressMapping",
      "outputs": [
        {
          "internalType": "bool",
          "name": "",
          "type": "bool"
        }
      ],
      "payable": false,
      "stateMutability": "view",
      "type": "function"
    },
    {
      "constant": true,
      "inputs": [
        {
          "internalType": "address",
          "name": "",
          "type": "address"
        }
      ],
      "name": "RegisteredBuyerMapping",
      "outputs": [
        {
          "internalType": "bool",
          "name": "",
          "type": "bool"
        }
      ],
      "payable": false,
      "stateMutability": "view",
      "type": "function"
    },
    {
      "constant": true,
      "inputs": [
        {
          "internalType": "address",
          "name": "",
          "type": "address"
        }
      ],
      "name": "RegisteredSellerMapping",
      "outputs": [
        {
          "internalType": "bool",
          "name": "",
          "type": "bool"
        }
      ],
      "payable": false,
      "stateMutability": "view",
      "type": "function"
    },
    {
      "constant": true,
      "inputs": [
        {
          "internalType": "uint256",
          "name": "",
          "type": "uint256"
        }
      ],
      "name": "RequestStatus",
      "outputs": [
        {
          "internalType": "bool",
          "name": "",
          "type": "bool"
        }
      ],
      "payable": false,
      "stateMutability": "view",
      "type": "function"
    },
    {
      "constant": true,
      "inputs": [
        {
          "internalType": "uint256",
          "name": "",
          "type": "uint256"
        }
      ],
      "name": "RequestedLands",
      "outputs": [
        {
          "internalType": "bool",
          "name": "",
          "type": "bool"
        }
      ],
      "payable": false,
      "stateMutability": "view",
      "type": "function"
    },
    {
      "constant": true,
      "inputs": [
        {
          "internalType": "uint256",
          "name": "",
          "type": "uint256"
        }
      ],
      "name": "RequestsMapping",
      "outputs": [
        {
          "internalType": "uint256",
          "name": "reqId",
          "type": "uint256"
        },
        {
          "internalType": "address",
          "name": "sellerId",
          "type": "address"
        },
        {
          "internalType": "address",
          "name": "buyerId",
          "type": "address"
        },
        {
          "internalType": "uint256",
          "name": "landId",
          "type": "uint256"
        }
      ],
      "payable": false,
      "stateMutability": "view",
      "type": "function"
    },
    {
      "constant": true,
      "inputs": [
        {
          "internalType": "address",
          "name": "",
          "type": "address"
        }
      ],
      "name": "SellerMapping",
      "outputs": [
        {
          "internalType": "address",
          "name": "id",
          "type": "address"
        },
        {
          "internalType": "string",
          "name": "name",
          "type": "string"
        },
        {
          "internalType": "uint256",
          "name": "age",
          "type": "uint256"
        },
        {
          "internalType": "string",
          "name": "landsOwned",
          "type": "string"
        },
        {
          "internalType": "string",
          "name": "verificationId",
          "type": "string"
        },
        {
          "internalType": "string",
          "name": "documentHash",
          "type": "string"
        }
      ],
      "payable": false,
      "stateMutability": "view",
      "type": "function"
    },
    {
      "constant": true,
      "inputs": [
        {
          "internalType": "address",
          "name": "",
          "type": "address"
        }
      ],
      "name": "SellerRejection",
      "outputs": [
        {
          "internalType": "bool",
          "name": "",
          "type": "bool"
        }
      ],
      "payable": false,
      "stateMutability": "view",
      "type": "function"
    },
    {
      "constant": true,
      "inputs": [
        {
          "internalType": "address",
          "name": "",
          "type": "address"
        }
      ],
      "name": "SellerVerification",
      "outputs": [
        {
          "internalType": "bool",
          "name": "",
          "type": "bool"
        }
      ],
      "payable": false,
      "stateMutability": "view",
      "type": "function"
    },
    {
      "constant": true,
      "inputs": [
        {
          "internalType": "uint256",
          "name": "",
          "type": "uint256"
        }
      ],
      "name": "buyers",
      "outputs": [
        {
          "internalType": "address",
          "name": "",
          "type": "address"
        }
      ],
      "payable": false,
      "stateMutability": "view",
      "type": "function"
    },
    {
      "constant": true,
      "inputs": [],
      "name": "buyersCount",
      "outputs": [
        {
          "internalType": "uint256",
          "name": "",
          "type": "uint256"
        }
      ],
      "payable": false,
      "stateMutability": "view",
      "type": "function"
    },
    {
      "constant": true,
      "inputs": [],
      "name": "inspectorsCount",
      "outputs": [
        {
          "internalType": "uint256",
          "name": "",
          "type": "uint256"
        }
      ],
      "payable": false,
      "stateMutability": "view",
      "type": "function"
    },
    {
      "constant": true,
      "inputs": [
        {
          "internalType": "uint256",
          "name": "",
          "type": "uint256"
        }
      ],
      "name": "lands",
      "outputs": [
        {
          "internalType": "uint256",
          "name": "id",
          "type": "uint256"
        },
        {
          "internalType": "uint256",
          "name": "area",
          "type": "uint256"
        },
        {
          "internalType": "string",
          "name": "city",
          "type": "string"
        },
        {
          "internalType": "string",
          "name": "state",
          "type": "string"
        },
        {
          "internalType": "uint256",
          "name": "landPrice",
          "type": "uint256"
        },
        {
          "internalType": "string",
          "name": "propertyPID",
          "type": "string"
        },
        {
          "internalType": "string",
          "name": "physicalSurveyNumber",
          "type": "string"
        },
        {
          "internalType": "string",
          "name": "ipfsHash",
          "type": "string"
        },
        {
          "internalType": "string",
          "name": "document",
          "type": "string"
        }
      ],
      "payable": false,
      "stateMutability": "view",
      "type": "function"
    },
    {
      "constant": true,
      "inputs": [],
      "name": "landsCount",
      "outputs": [
        {
          "internalType": "uint256",
          "name": "",
          "type": "uint256"
        }
      ],
      "payable": false,
      "stateMutability": "view",
      "type": "function"
    },
    {
      "constant": true,
      "inputs": [
        {
          "internalType": "bytes32",
          "name": "",
          "type": "bytes32"
        }
      ],
      "name": "registeredPIDs",
      "outputs": [
        {
          "internalType": "bool",
          "name": "",
          "type": "bool"
        }
      ],
      "payable": false,
      "stateMutability": "view",
      "type": "function"
    },
    {
      "constant": true,
      "inputs": [
        {
          "internalType": "bytes32",
          "name": "",
          "type": "bytes32"
        }
      ],
      "name": "registeredSurveyNumbers",
      "outputs": [
        {
          "internalType": "bool",
          "name": "",
          "type": "bool"
        }
      ],
      "payable": false,
      "stateMutability": "view",
      "type": "function"
    },
    {
      "constant": true,
      "inputs": [],
      "name": "requestsCount",
      "outputs": [
        {
          "internalType": "uint256",
          "name": "",
          "type": "uint256"
        }
      ],
      "payable": false,
      "stateMutability": "view",
      "type": "function"
    },
    {
      "constant": true,
      "inputs": [
        {
          "internalType": "uint256",
          "name": "",
          "type": "uint256"
        }
      ],
      "name": "sellers",
      "outputs": [
        {
          "internalType": "address",
          "name": "",
          "type": "address"
        }
      ],
      "payable": false,
      "stateMutability": "view",
      "type": "function"
    },
    {
      "constant": true,
      "inputs": [],
      "name": "sellersCount",
      "outputs": [
        {
          "internalType": "uint256",
          "name": "",
          "type": "uint256"
        }
      ],
      "payable": false,
      "stateMutability": "view",
      "type": "function"
    },
    {
      "constant": true,
      "inputs": [],
      "name": "getLandsCount",
      "outputs": [
        {
          "internalType": "uint256",
          "name": "",
          "type": "uint256"
        }
      ],
      "payable": false,
      "stateMutability": "view",
      "type": "function"
    },
    {
      "constant": true,
      "inputs": [],
      "name": "getBuyersCount",
      "outputs": [
        {
          "internalType": "uint256",
          "name": "",
          "type": "uint256"
        }
      ],
      "payable": false,
      "stateMutability": "view",
      "type": "function"
    },
    {
      "constant": true,
      "inputs": [],
      "name": "getSellersCount",
      "outputs": [
        {
          "internalType": "uint256",
          "name": "",
          "type": "uint256"
        }
      ],
      "payable": false,
      "stateMutability": "view",
      "type": "function"
    },
    {
      "constant": true,
      "inputs": [],
      "name": "getRequestsCount",
      "outputs": [
        {
          "internalType": "uint256",
          "name": "",
          "type": "uint256"
        }
      ],
      "payable": false,
      "stateMutability": "view",
      "type": "function"
    },
    {
      "constant": true,
      "inputs": [
        {
          "internalType": "uint256",
          "name": "i",
          "type": "uint256"
        }
      ],
      "name": "getArea",
      "outputs": [
        {
          "internalType": "uint256",
          "name": "",
          "type": "uint256"
        }
      ],
      "payable": false,
      "stateMutability": "view",
      "type": "function"
    },
    {
      "constant": true,
      "inputs": [
        {
          "internalType": "uint256",
          "name": "i",
          "type": "uint256"
        }
      ],
      "name": "getCity",
      "outputs": [
        {
          "internalType": "string",
          "name": "",
          "type": "string"
        }
      ],
      "payable": false,
      "stateMutability": "view",
      "type": "function"
    },
    {
      "constant": true,
      "inputs": [
        {
          "internalType": "uint256",
          "name": "i",
          "type": "uint256"
        }
      ],
      "name": "getState",
      "outputs": [
        {
          "internalType": "string",
          "name": "",
          "type": "string"
        }
      ],
      "payable": false,
      "stateMutability": "view",
      "type": "function"
    },
    {
      "constant": true,
      "inputs": [
        {
          "internalType": "uint256",
          "name": "i",
          "type": "uint256"
        }
      ],
      "name": "getPrice",
      "outputs": [
        {
          "internalType": "uint256",
          "name": "",
          "type": "uint256"
        }
      ],
      "payable": false,
      "stateMutability": "view",
      "type": "function"
    },
    {
      "constant": true,
      "inputs": [
        {
          "internalType": "uint256",
          "name": "i",
          "type": "uint256"
        }
      ],
      "name": "getPID",
      "outputs": [
        {
          "internalType": "string",
          "name": "",
          "type": "string"
        }
      ],
      "payable": false,
      "stateMutability": "view",
      "type": "function"
    },
    {
      "constant": true,
      "inputs": [
        {
          "internalType": "uint256",
          "name": "i",
          "type": "uint256"
        }
      ],
      "name": "getSurveyNumber",
      "outputs": [
        {
          "internalType": "string",
          "name": "",
          "type": "string"
        }
      ],
      "payable": false,
      "stateMutability": "view",
      "type": "function"
    },
    {
      "constant": true,
      "inputs": [
        {
          "internalType": "uint256",
          "name": "i",
          "type": "uint256"
        }
      ],
      "name": "getImage",
      "outputs": [
        {
          "internalType": "string",
          "name": "",
          "type": "string"
        }
      ],
      "payable": false,
      "stateMutability": "view",
      "type": "function"
    },
    {
      "constant": true,
      "inputs": [
        {
          "internalType": "uint256",
          "name": "i",
          "type": "uint256"
        }
      ],
      "name": "getDocument",
      "outputs": [
        {
          "internalType": "string",
          "name": "",
          "type": "string"
        }
      ],
      "payable": false,
      "stateMutability": "view",
      "type": "function"
    },
    {
      "constant": true,
      "inputs": [
        {
          "internalType": "uint256",
          "name": "id",
          "type": "uint256"
        }
      ],
      "name": "getLandOwner",
      "outputs": [
        {
          "internalType": "address",
          "name": "",
          "type": "address"
        }
      ],
      "payable": false,
      "stateMutability": "view",
      "type": "function"
    },
    {
      "constant": false,
      "inputs": [
        {
          "internalType": "address",
          "name": "_sellerId",
          "type": "address"
        }
      ],
      "name": "verifySeller",
      "outputs": [],
      "payable": false,
      "stateMutability": "nonpayable",
      "type": "function"
    },
    {
      "constant": false,
      "inputs": [
        {
          "internalType": "address",
          "name": "_sellerId",
          "type": "address"
        }
      ],
      "name": "rejectSeller",
      "outputs": [],
      "payable": false,
      "stateMutability": "nonpayable",
      "type": "function"
    },
    {
      "constant": false,
      "inputs": [
        {
          "internalType": "address",
          "name": "_buyerId",
          "type": "address"
        }
      ],
      "name": "verifyBuyer",
      "outputs": [],
      "payable": false,
      "stateMutability": "nonpayable",
      "type": "function"
    },
    {
      "constant": false,
      "inputs": [
        {
          "internalType": "address",
          "name": "_buyerId",
          "type": "address"
        }
      ],
      "name": "rejectBuyer",
      "outputs": [],
      "payable": false,
      "stateMutability": "nonpayable",
      "type": "function"
    },
    {
      "constant": false,
      "inputs": [
        {
          "internalType": "uint256",
          "name": "_landId",
          "type": "uint256"
        }
      ],
      "name": "verifyLand",
      "outputs": [],
      "payable": false,
      "stateMutability": "nonpayable",
      "type": "function"
    },
    {
      "constant": true,
      "inputs": [
        {
          "internalType": "uint256",
          "name": "_id",
          "type": "uint256"
        }
      ],
      "name": "isLandVerified",
      "outputs": [
        {
          "internalType": "bool",
          "name": "",
          "type": "bool"
        }
      ],
      "payable": false,
      "stateMutability": "view",
      "type": "function"
    },
    {
      "constant": true,
      "inputs": [
        {
          "internalType": "address",
          "name": "_id",
          "type": "address"
        }
      ],
      "name": "isVerified",
      "outputs": [
        {
          "internalType": "bool",
          "name": "",
          "type": "bool"
        }
      ],
      "payable": false,
      "stateMutability": "view",
      "type": "function"
    },
    {
      "constant": true,
      "inputs": [
        {
          "internalType": "address",
          "name": "_id",
          "type": "address"
        }
      ],
      "name": "isRejected",
      "outputs": [
        {
          "internalType": "bool",
          "name": "",
          "type": "bool"
        }
      ],
      "payable": false,
      "stateMutability": "view",
      "type": "function"
    },
    {
      "constant": true,
      "inputs": [
        {
          "internalType": "address",
          "name": "_id",
          "type": "address"
        }
      ],
      "name": "isSeller",
      "outputs": [
        {
          "internalType": "bool",
          "name": "",
          "type": "bool"
        }
      ],
      "payable": false,
      "stateMutability": "view",
      "type": "function"
    },
    {
      "constant": true,
      "inputs": [
        {
          "internalType": "address",
          "name": "_id",
          "type": "address"
        }
      ],
      "name": "isLandInspector",
      "outputs": [
        {
          "internalType": "bool",
          "name": "",
          "type": "bool"
        }
      ],
      "payable": false,
      "stateMutability": "view",
      "type": "function"
    },
    {
      "constant": true,
      "inputs": [
        {
          "internalType": "address",
          "name": "_id",
          "type": "address"
        }
      ],
      "name": "isBuyer",
      "outputs": [
        {
          "internalType": "bool",
          "name": "",
          "type": "bool"
        }
      ],
      "payable": false,
      "stateMutability": "view",
      "type": "function"
    },
    {
      "constant": true,
      "inputs": [
        {
          "internalType": "address",
          "name": "_id",
          "type": "address"
        }
      ],
      "name": "isRegistered",
      "outputs": [
        {
          "internalType": "bool",
          "name": "",
          "type": "bool"
        }
      ],
      "payable": false,
      "stateMutability": "view",
      "type": "function"
    },
    {
      "constant": false,
      "inputs": [
        {
          "internalType": "uint256",
          "name": "_area",
          "type": "uint256"
        },
        {
          "internalType": "string",
          "name": "_city",
          "type": "string"
        },
        {
          "internalType": "string",
          "name": "_state",
          "type": "string"
        },
        {
          "internalType": "uint256",
          "name": "landPrice",
          "type": "uint256"
        },
        {
          "internalType": "string",
          "name": "_propertyPID",
          "type": "string"
        },
        {
          "internalType": "string",
          "name": "_surveyNum",
          "type": "string"
        },
        {
          "internalType": "string",
          "name": "_ipfsHash",
          "type": "string"
        },
        {
          "internalType": "string",
          "name": "_document",
          "type": "string"
        }
      ],
      "name": "addLand",
      "outputs": [],
      "payable": false,
      "stateMutability": "nonpayable",
      "type": "function"
    },
    {
      "constant": false,
      "inputs": [
        {
          "internalType": "string",
          "name": "_name",
          "type": "string"
        },
        {
          "internalType": "uint256",
          "name": "_age",
          "type": "uint256"
        },
        {
          "internalType": "string",
          "name": "_landsOwned",
          "type": "string"
        },
        {
          "internalType": "string",
          "name": "_verificationId",
          "type": "string"
        },
        {
          "internalType": "string",
          "name": "_documentHash",
          "type": "string"
        }
      ],
      "name": "registerSeller",
      "outputs": [],
      "payable": false,
      "stateMutability": "nonpayable",
      "type": "function"
    },
    {
      "constant": false,
      "inputs": [
        {
          "internalType": "string",
          "name": "_name",
          "type": "string"
        },
        {
          "internalType": "uint256",
          "name": "_age",
          "type": "uint256"
        },
        {
          "internalType": "string",
          "name": "_landsOwned",
          "type": "string"
        }
      ],
      "name": "updateSeller",
      "outputs": [],
      "payable": false,
      "stateMutability": "nonpayable",
      "type": "function"
    },
    {
      "constant": true,
      "inputs": [],
      "name": "getSeller",
      "outputs": [
        {
          "internalType": "address[]",
          "name": "",
          "type": "address[]"
        }
      ],
      "payable": false,
      "stateMutability": "view",
      "type": "function"
    },
    {
      "constant": true,
      "inputs": [
        {
          "internalType": "address",
          "name": "i",
          "type": "address"
        }
      ],
      "name": "getSellerDetails",
      "outputs": [
        {
          "internalType": "string",
          "name": "",
          "type": "string"
        },
        {
          "internalType": "uint256",
          "name": "",
          "type": "uint256"
        },
        {
          "internalType": "string",
          "name": "",
          "type": "string"
        },
        {
          "internalType": "string",
          "name": "",
          "type": "string"
        },
        {
          "internalType": "string",
          "name": "",
          "type": "string"
        }
      ],
      "payable": false,
      "stateMutability": "view",
      "type": "function"
    },
    {
      "constant": false,
      "inputs": [
        {
          "internalType": "string",
          "name": "_name",
          "type": "string"
        },
        {
          "internalType": "uint256",
          "name": "_age",
          "type": "uint256"
        },
        {
          "internalType": "string",
          "name": "_city",
          "type": "string"
        },
        {
          "internalType": "string",
          "name": "_email",
          "type": "string"
        },
        {
          "internalType": "string",
          "name": "_verificationId",
          "type": "string"
        },
        {
          "internalType": "string",
          "name": "_documentHash",
          "type": "string"
        }
      ],
      "name": "registerBuyer",
      "outputs": [],
      "payable": false,
      "stateMutability": "nonpayable",
      "type": "function"
    },
    {
      "constant": false,
      "inputs": [
        {
          "internalType": "string",
          "name": "_name",
          "type": "string"
        },
        {
          "internalType": "uint256",
          "name": "_age",
          "type": "uint256"
        },
        {
          "internalType": "string",
          "name": "_city",
          "type": "string"
        },
        {
          "internalType": "string",
          "name": "_email",
          "type": "string"
        }
      ],
      "name": "updateBuyer",
      "outputs": [],
      "payable": false,
      "stateMutability": "nonpayable",
      "type": "function"
    },
    {
      "constant": true,
      "inputs": [],
      "name": "getBuyer",
      "outputs": [
        {
          "internalType": "address[]",
          "name": "",
          "type": "address[]"
        }
      ],
      "payable": false,
      "stateMutability": "view",
      "type": "function"
    },
    {
      "constant": true,
      "inputs": [
        {
          "internalType": "address",
          "name": "i",
          "type": "address"
        }
      ],
      "name": "getBuyerDetails",
      "outputs": [
        {
          "internalType": "string",
          "name": "",
          "type": "string"
        },
        {
          "internalType": "uint256",
          "name": "",
          "type": "uint256"
        },
        {
          "internalType": "string",
          "name": "",
          "type": "string"
        },
        {
          "internalType": "string",
          "name": "",
          "type": "string"
        },
        {
          "internalType": "string",
          "name": "",
          "type": "string"
        },
        {
          "internalType": "string",
          "name": "",
          "type": "string"
        }
      ],
      "payable": false,
      "stateMutability": "view",
      "type": "function"
    },
    {
      "constant": false,
      "inputs": [
        {
          "internalType": "address",
          "name": "_sellerId",
          "type": "address"
        },
        {
          "internalType": "uint256",
          "name": "_landId",
          "type": "uint256"
        }
      ],
      "name": "requestLand",
      "outputs": [],
      "payable": false,
      "stateMutability": "nonpayable",
      "type": "function"
    },
    {
      "constant": true,
      "inputs": [
        {
          "internalType": "uint256",
          "name": "i",
          "type": "uint256"
        }
      ],
      "name": "getRequestDetails",
      "outputs": [
        {
          "internalType": "address",
          "name": "",
          "type": "address"
        },
        {
          "internalType": "address",
          "name": "",
          "type": "address"
        },
        {
          "internalType": "uint256",
          "name": "",
          "type": "uint256"
        },
        {
          "internalType": "bool",
          "name": "",
          "type": "bool"
        }
      ],
      "payable": false,
      "stateMutability": "view",
      "type": "function"
    },
    {
      "constant": true,
      "inputs": [
        {
          "internalType": "uint256",
          "name": "_id",
          "type": "uint256"
        }
      ],
      "name": "isRequested",
      "outputs": [
        {
          "internalType": "bool",
          "name": "",
          "type": "bool"
        }
      ],
      "payable": false,
      "stateMutability": "view",
      "type": "function"
    },
    {
      "constant": true,
      "inputs": [
        {
          "internalType": "uint256",
          "name": "_id",
          "type": "uint256"
        }
      ],
      "name": "isApproved",
      "outputs": [
        {
          "internalType": "bool",
          "name": "",
          "type": "bool"
        }
      ],
      "payable": false,
      "stateMutability": "view",
      "type": "function"
    },
    {
      "constant": false,
      "inputs": [
        {
          "internalType": "uint256",
          "name": "_reqId",
          "type": "uint256"
        }
      ],
      "name": "approveRequest",
      "outputs": [],
      "payable": false,
      "stateMutability": "nonpayable",
      "type": "function"
    },
    {
      "constant": false,
      "inputs": [
        {
          "internalType": "uint256",
          "name": "_landId",
          "type": "uint256"
        },
        {
          "internalType": "address",
          "name": "_newOwner",
          "type": "address"
        }
      ],
      "name": "LandOwnershipTransfer",
      "outputs": [],
      "payable": false,
      "stateMutability": "nonpayable",
      "type": "function"
    },
    {
      "constant": true,
      "inputs": [
        {
          "internalType": "uint256",
          "name": "_reqId",
          "type": "uint256"
        }
      ],
      "name": "isPaid",
      "outputs": [
        {
          "internalType": "bool",
          "name": "",
          "type": "bool"
        }
      ],
      "payable": false,
      "stateMutability": "view",
      "type": "function"
    },
    {
      "constant": false,
      "inputs": [
        {
          "internalType": "address payable",
          "name": "_receiver",
          "type": "address"
        },
        {
          "internalType": "uint256",
          "name": "_reqId",
          "type": "uint256"
        }
      ],
      "name": "payment",
      "outputs": [],
      "payable": true,
      "stateMutability": "payable",
      "type": "function"
    }
  ],
  "bytecode": "0x60806040523480156200001157600080fd5b5060138054600160a060020a03191633179055604080518082018252600b81527f496e73706563746f7220310000000000000000000000000000000000000000006020808301919091528251808401909352600e83527f54656873696c204d616e6167657200000000000000000000000000000000000090830152620000a391602d90640100000000620000a9810204565b620001d7565b601780546001908101918290556040805160808101825283815260208082018881528284018890526060830187905260009586528482529290942081518155915180519194929362000102939085019291019062000132565b5060408201516002820155606082015180516200012a91600384019160209091019062000132565b505050505050565b828054600181600116156101000203166002900490600052602060002090601f016020900481019282601f106200017557805160ff1916838001178555620001a5565b82800160010185558215620001a5579182015b82811115620001a557825182559160200191906001019062000188565b50620001b3929150620001b7565b5090565b620001d491905b80821115620001b35760008155600101620001be565b90565b613fd980620001e76000396000f3fe608060405260043610610467576000357c010000000000000000000000000000000000000000000000000000000090048063a8c269af11610260578063dec091ad11610160578063ee95feaf116100d8578063f34d4c63116100a7578063f58f85b51161008c578063f58f85b514610cff578063f9c43bdf14610d1f578063fbfa4b7f14610d3f57610467565b8063f34d4c6314610caf578063f3f0c21814610cdf57610467565b8063ee95feaf14610c3a578063f07ddf0b14610c5a578063f0d3a9df14610c7a578063f2aa821814610c8f57610467565b8063e1ecc7941161012f578063e4b2611511610114578063e4b2611514610bda578063e706d55514610bfa578063e757223014610c1a57610467565b8063e1ecc79414610b85578063e261f1e514610ba557610467565b8063dec091ad14610ae3578063def936c314610b15578063e0057f9814610b45578063e165af8714610b6557610467565b8063c3c5a547116101f3578063d1760e60116101c2578063d7d1bbdb116101a7578063d7d1bbdb14610a99578063dbd0e1b614610ab9578063dd9d122d14610ace57610467565b8063d1760e6014610a59578063d713065114610a7957610467565b8063c3c5a547146109d9578063cad1ab3b146109f9578063cd392a8314610a19578063cee26ed514610a3957610467565b8063b3c8fe851161022f578063b3c8fe8514610953578063b9209e3314610984578063ba49a08c146109a4578063bed403c7146109b957610467565b8063a8c269af146108b0578063ab517074146108d0578063afe1a65614610903578063b0a5dcd31461092357610467565b80636490c7a81161036b57806389d21354116102fe5780639d7167ba116102cd578063a47d4c02116102b2578063a47d4c0214610850578063a4a0f6c014610870578063a6dc41fb1461089057610467565b80639d7167ba146108105780639dc1bfa91461083057610467565b806389d21354146107a6578063941e2426146107c6578063989376b4146107db5780639ae9711e146107fb57610467565b80636cbf6cf81161033a5780636cbf6cf8146107265780637910867b1461074657806383546501146107665780638965cde11461078657610467565b80636490c7a81461069f57806367a09c23146106bf5780636814800b146106d457806368cfe6ee146106f457610467565b80632a55feec116103fe57806348a46bd3116103cd578063601e7c34116103b2578063601e7c341461063d578063603daf9a1461065d57806363f171431461067f57610467565b806348a46bd3146105fd5780634daa9dae1461061d57610467565b80632a55feec146105885780633410452a146105a85780633f9b250a146105bd57806344c9af28146105dd57610467565b80631869a38b1161043a5780631869a38b146105135780631a07f76e146105335780631c9afd0f146105535780632607aafa1461056857610467565b806307d56ac01461046c578063155fec72146104a257806316d9d666146104cf578063170f3909146104f1575b600080fd5b34801561047857600080fd5b5061048c610487366004613378565b610d54565b6040516104999190613c23565b60405180910390f35b3480156104ae57600080fd5b506104c26104bd366004613378565b610df7565b6040516104999190613c15565b3480156104db57600080fd5b506104e4610e16565b6040516104999190613d5e565b3480156104fd57600080fd5b50610506610e1d565b6040516104999190613ab9565b34801561051f57600080fd5b5061050661052e366004613378565b610e2c565b34801561053f57600080fd5b506104c261054e366004613378565b610e47565b34801561055f57600080fd5b506104e4610e5c565b34801561057457600080fd5b5061048c610583366004613378565b610e62565b34801561059457600080fd5b506104c26105a3366004613318565b610ecd565b3480156105b457600080fd5b506104e4610ef6565b3480156105c957600080fd5b5061048c6105d8366004613378565b610efc565b3480156105e957600080fd5b5061048c6105f8366004613378565b610f67565b34801561060957600080fd5b506104c2610618366004613318565b610fd2565b34801561062957600080fd5b506104c2610638366004613378565b61101e565b34801561064957600080fd5b506104c2610658366004613318565b611033565b34801561066957600080fd5b50610672611048565b6040516104999190613c04565b34801561068b57600080fd5b506104c261069a366004613318565b6110aa565b3480156106ab57600080fd5b506104e46106ba366004613378565b6110bf565b6106d26106cd36600461333e565b6110d4565b005b3480156106e057600080fd5b506106d26106ef366004613318565b611260565b34801561070057600080fd5b5061071461070f366004613318565b6112d0565b60405161049996959493929190613c99565b34801561073257600080fd5b506104c2610741366004613378565b6115e7565b34801561075257600080fd5b506104c2610761366004613378565b611606565b34801561077257600080fd5b506104c2610781366004613378565b611625565b34801561079257600080fd5b506106d26107a1366004613318565b61163a565b3480156107b257600080fd5b506104c26107c1366004613378565b61169f565b3480156107d257600080fd5b506104e46116b4565b3480156107e757600080fd5b506104c26107f6366004613318565b6116ba565b34801561080757600080fd5b506104e46116cf565b34801561081c57600080fd5b506106d261082b366004613396565b6116d5565b34801561083c57600080fd5b5061050661084b366004613378565b61176c565b34801561085c57600080fd5b506104c261086b366004613318565b611787565b34801561087c57600080fd5b5061048c61088b366004613378565b61179c565b34801561089c57600080fd5b506104c26108ab366004613318565b611807565b3480156108bc57600080fd5b506104c26108cb366004613378565b61181c565b3480156108dc57600080fd5b506108f06108eb366004613318565b611831565b6040516104999796959493929190613b7a565b34801561090f57600080fd5b506106d261091e3660046136bc565b611b2d565b34801561092f57600080fd5b5061094361093e366004613378565b611e3e565b6040516104999493929190613d6c565b34801561095f57600080fd5b5061097361096e366004613318565b611e72565b604051610499959493929190613c34565b34801561099057600080fd5b506104c261099f366004613318565b6120f2565b3480156109b057600080fd5b506104e461213d565b3480156109c557600080fd5b506106d26109d436600461368c565b612143565b3480156109e557600080fd5b506104c26109f4366004613318565b6121bf565b348015610a0557600080fd5b506106d2610a1436600461358e565b6121e8565b348015610a2557600080fd5b506104c2610a34366004613378565b6123cd565b348015610a4557600080fd5b50610506610a54366004613378565b6123ec565b348015610a6557600080fd5b506106d2610a74366004613318565b612413565b348015610a8557600080fd5b5061048c610a94366004613378565b612478565b348015610aa557600080fd5b506106d2610ab4366004613378565b6124e6565b348015610ac557600080fd5b50610672612560565b348015610ada57600080fd5b506104e46125c0565b348015610aef57600080fd5b50610b03610afe366004613318565b6125c6565b60405161049996959493929190613b05565b348015610b2157600080fd5b50610b35610b30366004613378565b61282f565b6040516104999493929190613da1565b348015610b5157600080fd5b506104c2610b60366004613378565b61296d565b348015610b7157600080fd5b506104c2610b80366004613318565b612982565b348015610b9157600080fd5b506106d2610ba0366004613318565b6129ab565b348015610bb157600080fd5b50610bc5610bc0366004613378565b612a10565b60405161049999989796959493929190613e07565b348015610be657600080fd5b506104c2610bf5366004613318565b612d8f565b348015610c0657600080fd5b506106d2610c153660046134ba565b612da4565b348015610c2657600080fd5b506104e4610c35366004613378565b612f65565b348015610c4657600080fd5b506104c2610c55366004613318565b612f7a565b348015610c6657600080fd5b506106d2610c75366004613412565b612fa3565b348015610c8657600080fd5b506104e4613063565b348015610c9b57600080fd5b50610506610caa366004613378565b613069565b348015610cbb57600080fd5b50610ccf610cca366004613378565b613076565b6040516104999493929190613ac7565b348015610ceb57600080fd5b506106d2610cfa36600461333e565b6130b8565b348015610d0b57600080fd5b506104c2610d1a366004613318565b6131c8565b348015610d2b57600080fd5b506106d2610d3a366004613378565b6131dd565b348015610d4b57600080fd5b506104e461320a565b6000818152602081815260409182902060050180548351601f6002600019610100600186161502019093169290920491820184900484028101840190945280845260609392830182828015610dea5780601f10610dbf57610100808354040283529160200191610dea565b820191906000526020600020905b815481529060010190602001808311610dcd57829003601f168201915b505050505090505b919050565b6000818152600f602052604081205460ff1615610df257506001610df2565b6016545b90565b601354600160a060020a031681565b6000908152600d6020526040902054600160a060020a031690565b60106020526000908152604090205460ff1681565b60165481565b6000818152602081815260409182902060070180548351601f6002600019610100600186161502019093169290920491820184900484028101840190945280845260609392830182828015610dea5780601f10610dbf57610100808354040283529160200191610dea565b600160a060020a03811660009081526007602052604081205460ff1615610df257506001610df2565b601a5490565b6000818152602081815260409182902060080180548351601f6002600019610100600186161502019093169290920491820184900484028101840190945280845260609392830182828015610dea5780601f10610dbf57610100808354040283529160200191610dea565b6000818152602081815260409182902060030180548351601f6002600019610100600186161502019093169290920491820184900484028101840190945280845260609392830182828015610dea5780601f10610dbf57610100808354040283529160200191610dea565b600160a060020a03811660009081526009602052604081205460ff16806110115750600160a060020a0382166000908152600b602052604090205460ff165b15610df257506001610df2565b600f6020526000908152604090205460ff1681565b60066020526000908152604090205460ff1681565b606060158054806020026020016040519081016040528092919081815260200182805480156110a057602002820191906000526020600020905b8154600160a060020a03168152600190910190602001808311611082575b5050505050905090565b60096020526000908152604090205460ff1681565b60009081526020819052604090206001015490565b600081815260046020526040902060020154600160a060020a03163314611130576040517f08c379a000000000000000000000000000000000000000000000000000000000815260040161112790613d3e565b60405180910390fd5b6000818152600e602052604090205460ff16151560011461117d576040517f08c379a000000000000000000000000000000000000000000000000000000000815260040161112790613d2e565b60008181526010602052604090205460ff16156111c6576040517f08c379a000000000000000000000000000000000000000000000000000000000815260040161112790613cdf565b600081815260106020526040808220805460ff1916600117905551600160a060020a038416913480156108fc02929091818181858888f1935050505015801561120e57600080fd5b5081600160a060020a031633600160a060020a03167f2390c37eb86998d7803bf89b5589b6e6c9f0eb42239910f17ac78d2b0bc545168334604051611254929190613dec565b60405180910390a35050565b61126933612982565b61127257600080fd5b600160a060020a0381166000908152600a602052604090819020805460ff19166001179055517f6a6455914f452787eb3985452aceedc1000fb545e394eb3b370e3d08958e0a5b906112c5908390613ab9565b60405180910390a150565b600160a060020a03811660009081526003602081815260408084206002808201546001808401805486519281161561010002600019011693909304601f81018790048702820187019095528481526060979688968796879687969594938101936004820193600583019360069093019288918301828280156113935780601f1061136857610100808354040283529160200191611393565b820191906000526020600020905b81548152906001019060200180831161137657829003601f168201915b5050875460408051602060026001851615610100026000190190941693909304601f8101849004840282018401909252818152959b50899450925084019050828280156114215780601f106113f657610100808354040283529160200191611421565b820191906000526020600020905b81548152906001019060200180831161140457829003601f168201915b5050865460408051602060026001851615610100026000190190941693909304601f8101849004840282018401909252818152959950889450925084019050828280156114af5780601f10611484576101008083540402835291602001916114af565b820191906000526020600020905b81548152906001019060200180831161149257829003601f168201915b5050855460408051602060026001851615610100026000190190941693909304601f81018490048402820184019092528181529598508794509250840190508282801561153d5780601f106115125761010080835404028352916020019161153d565b820191906000526020600020905b81548152906001019060200180831161152057829003601f168201915b5050845460408051602060026001851615610100026000190190941693909304601f8101849004840282018401909252818152959750869450925084019050828280156115cb5780601f106115a0576101008083540402835291602001916115cb565b820191906000526020600020905b8154815290600101906020018083116115ae57829003601f168201915b5050505050905095509550955095509550955091939550919395565b6000818152600c602052604081205460ff1615610df257506001610df2565b6000818152600e602052604081205460ff1615610df257506001610df2565b600c6020526000908152604090205460ff1681565b61164333612982565b61164c57600080fd5b600160a060020a0381166000908152600b602052604090819020805460ff19166001179055517faf77f8960cf590e245ec8b6d41c193a5dcacad8986ae4eb57ac9e5be7b6af031906112c5908390613ab9565b600e6020526000908152604090205460ff1681565b60175481565b600b6020526000908152604090205460ff1681565b60185481565b3360009081526005602052604090205460ff16801561170a575033600081815260026020526040902054600160a060020a0316145b61171357600080fd5b336000908152600260209081526040909120845161173992600190920191860190613210565b50336000908152600260208181526040909220908101849055825161176692600390920191840190613210565b50505050565b600d60205260009081526040902054600160a060020a031681565b60076020526000908152604090205460ff1681565b6000818152602081815260409182902060060180548351601f6002600019610100600186161502019093169290920491820184900484028101840190945280845260609392830182828015610dea5780601f10610dbf57610100808354040283529160200191610dea565b600a6020526000908152604090205460ff1681565b60116020526000908152604090205460ff1681565b6003602090815260009182526040918290208054600180830180548651600261010094831615949094026000190190911692909204601f8101869004860283018601909652858252600160a060020a039092169492939092908301828280156118db5780601f106118b0576101008083540402835291602001916118db565b820191906000526020600020905b8154815290600101906020018083116118be57829003601f168201915b505050506002838101546003850180546040805160206001841615610100026000190190931695909504601f8101839004830286018301909152808552959692959294509091908301828280156119735780601f1061194857610100808354040283529160200191611973565b820191906000526020600020905b81548152906001019060200180831161195657829003601f168201915b5050505060048301805460408051602060026001851615610100026000190190941693909304601f8101849004840282018401909252818152949594935090830182828015611a035780601f106119d857610100808354040283529160200191611a03565b820191906000526020600020905b8154815290600101906020018083116119e657829003601f168201915b5050505060058301805460408051602060026001851615610100026000190190941693909304601f8101849004840282018401909252818152949594935090830182828015611a935780601f10611a6857610100808354040283529160200191611a93565b820191906000526020600020905b815481529060010190602001808311611a7657829003601f168201915b5050505060068301805460408051602060026001851615610100026000190190941693909304601f8101849004840282018401909252818152949594935090830182828015611b235780601f10611af857610100808354040283529160200191611b23565b820191906000526020600020905b815481529060010190602001808311611b0657829003601f168201915b5050505050905087565b611b3633612f7a565b8015611b465750611b46336120f2565b611b4f57600080fd5b600084604051602001611b629190613aa6565b604051602081830303815290604052805190602001209050600084604051602001611b8d9190613aa6565b60408051601f1981840301815291815281516020928301206000858152601190935291205490915060ff1615611bef576040517f08c379a000000000000000000000000000000000000000000000000000000000815260040161112790613cef565b60008181526012602052604090205460ff1615611c38576040517f08c379a000000000000000000000000000000000000000000000000000000000815260040161112790613cff565b60016011600084815260200190815260200160002060006101000a81548160ff02191690831515021790555060016012600083815260200190815260200160002060006101000a81548160ff02191690831515021790555060166000815480929190600101919050555060405180610120016040528060165481526020018b81526020018a815260200189815260200188815260200187815260200186815260200185815260200184815250600080601654815260200190815260200160002060008201518160000155602082015181600101556040820151816002019080519060200190611d28929190613210565b5060608201518051611d44916003840191602090910190613210565b506080820151600482015560a08201518051611d6a916005840191602090910190613210565b5060c08201518051611d86916006840191602090910190613210565b5060e08201518051611da2916007840191602090910190613210565b506101008201518051611dbf916008840191602090910190613210565b5050601680546000908152600d602052604090819020805473ffffffffffffffffffffffffffffffffffffffff19163390811790915591549051919250907f5713491f1d31ec27bd9a43113bf073a98e7a3c1ab3095c5cc1a0a79fa731d00890611e2a904290613d5e565b60405180910390a350505050505050505050565b60046020526000908152604090208054600182015460028301546003909301549192600160a060020a039182169291169084565b600160a060020a0381166000908152600260208181526040808420808401546001808301805485519281161561010002600019011696909604601f810186900486028201860190945283815260609695879586958695929493600384019360048101936005909101928791830182828015611f2e5780601f10611f0357610100808354040283529160200191611f2e565b820191906000526020600020905b815481529060010190602001808311611f1157829003601f168201915b5050865460408051602060026001851615610100026000190190941693909304601f8101849004840282018401909252818152959a5088945092508401905082828015611fbc5780601f10611f9157610100808354040283529160200191611fbc565b820191906000526020600020905b815481529060010190602001808311611f9f57829003601f168201915b5050855460408051602060026001851615610100026000190190941693909304601f81018490048402820184019092528181529598508794509250840190508282801561204a5780601f1061201f5761010080835404028352916020019161204a565b820191906000526020600020905b81548152906001019060200180831161202d57829003601f168201915b5050845460408051602060026001851615610100026000190190941693909304601f8101849004840282018401909252818152959750869450925084019050828280156120d85780601f106120ad576101008083540402835291602001916120d8565b820191906000526020600020905b8154815290600101906020018083116120bb57829003601f168201915b505050505090509450945094509450945091939590929450565b600160a060020a03811660009081526008602052604081205460ff16806110115750600160a060020a0382166000908152600a602052604090205460ff1615610df257506001610df2565b60195481565b61214c33612982565b61215557600080fd5b6000828152600d602052604090819020805473ffffffffffffffffffffffffffffffffffffffff1916600160a060020a038416908117909155905183907ff5f027662abd4d49933f26c593d190a27b51aa8bc30ed32979c66ee7a1ffab5d90611254904290613d5e565b600160a060020a03811660009081526005602052604081205460ff1615610df257506001610df2565b3360009081526005602052604090205460ff161561220557600080fd5b3360008181526005602090815260408083208054600160ff199182168117909255600784528285208054909116821790556019805482019055815160e0810183528581528084018c81528184018c9052606082018b9052608082018a905260a0820189905260c0820188905295855260038452919093208151815473ffffffffffffffffffffffffffffffffffffffff1916600160a060020a03909116178155935180519194936122bc9390850192910190613210565b5060408201516002820155606082015180516122e2916003840191602090910190613210565b50608082015180516122fe916004840191602090910190613210565b5060a0820151805161231a916005840191602090910190613210565b5060c08201518051612336916006840191602090910190613210565b5050601580546001810182556000919091527f55f448fdea98c4d29eb340757ef0a66cd03dbb9538908a6a81d96026b71ec47501805473ffffffffffffffffffffffffffffffffffffffff1916339081179091556040519091507f89105a1c6a3c2fbd471255c66a31ccab604af5697f67d7e2e9a0028c5e4dbd91906123bd904290613d4e565b60405180910390a2505050505050565b60008181526010602052604081205460ff1615610df257506001610df2565b601481815481106123f957fe5b600091825260209091200154600160a060020a0316905081565b61241c33612982565b61242557600080fd5b600160a060020a03811660009081526008602052604090819020805460ff19166001179055517f6a6455914f452787eb3985452aceedc1000fb545e394eb3b370e3d08958e0a5b906112c5908390613ab9565b600081815260208181526040918290206002908101805484516001821615610100026000190190911692909204601f81018490048402830184019094528382526060939192909190830182828015610dea5780601f10610dbf57610100808354040283529160200191610dea565b6124ef33612f7a565b80156124ff57506124ff336120f2565b61250857600080fd5b6000818152600e602052604090819020805460ff1916600117905551339082907f4def62da440b39db2661de60aa3dad0479ac27d4c22597d6e14c7441774f8a3190612555904290613d5e565b60405180910390a350565b606060148054806020026020016040519081016040528092919081815260200182805480156110a057602002820191906000526020600020908154600160a060020a03168152600190910190602001808311611082575050505050905090565b60185490565b6002602081815260009283526040928390208054600180830180548751601f60001994831615610100029490940190911696909604918201859004850286018501909652808552600160a060020a039091169491939283018282801561266d5780601f106126425761010080835404028352916020019161266d565b820191906000526020600020905b81548152906001019060200180831161265057829003601f168201915b505050506002838101546003850180546040805160206001841615610100026000190190931695909504601f8101839004830286018301909152808552959692959294509091908301828280156127055780601f106126da57610100808354040283529160200191612705565b820191906000526020600020905b8154815290600101906020018083116126e857829003601f168201915b5050505060048301805460408051602060026001851615610100026000190190941693909304601f81018490048402820184019092528181529495949350908301828280156127955780601f1061276a57610100808354040283529160200191612795565b820191906000526020600020905b81548152906001019060200180831161277857829003601f168201915b5050505060058301805460408051602060026001851615610100026000190190941693909304601f81018490048402820184019092528181529495949350908301828280156128255780601f106127fa57610100808354040283529160200191612825565b820191906000526020600020905b81548152906001019060200180831161280857829003601f168201915b5050505050905086565b600160208181526000928352604092839020805481840180548651600296821615610100026000190190911695909504601f810185900485028601850190965285855290949193929091908301828280156128cb5780601f106128a0576101008083540402835291602001916128cb565b820191906000526020600020905b8154815290600101906020018083116128ae57829003601f168201915b505050506002838101546003850180546040805160206001841615610100026000190190931695909504601f8101839004830286018301909152808552959692959294509091908301828280156129635780601f1061293857610100808354040283529160200191612963565b820191906000526020600020905b81548152906001019060200180831161294657829003601f168201915b5050505050905084565b60126020526000908152604090205460ff1681565b601354600090600160a060020a03838116911614156129a357506001610df2565b506000610df2565b6129b433612982565b6129bd57600080fd5b600160a060020a03811660009081526009602052604090819020805460ff19166001179055517faf77f8960cf590e245ec8b6d41c193a5dcacad8986ae4eb57ac9e5be7b6af031906112c5908390613ab9565b6000602081815291815260409081902080546001808301546002808501805487519481161561010002600019011691909104601f81018890048802840188019096528583529295909491929190830182828015612aae5780601f10612a8357610100808354040283529160200191612aae565b820191906000526020600020905b815481529060010190602001808311612a9157829003601f168201915b5050505060038301805460408051602060026001851615610100026000190190941693909304601f8101849004840282018401909252818152949594935090830182828015612b3e5780601f10612b1357610100808354040283529160200191612b3e565b820191906000526020600020905b815481529060010190602001808311612b2157829003601f168201915b50505050600483015460058401805460408051602060026001851615610100026000190190941693909304601f81018490048402820184019092528181529596939593945090830182828015612bd55780601f10612baa57610100808354040283529160200191612bd5565b820191906000526020600020905b815481529060010190602001808311612bb857829003601f168201915b5050505060068301805460408051602060026001851615610100026000190190941693909304601f8101849004840282018401909252818152949594935090830182828015612c655780601f10612c3a57610100808354040283529160200191612c65565b820191906000526020600020905b815481529060010190602001808311612c4857829003601f168201915b5050505060078301805460408051602060026001851615610100026000190190941693909304601f8101849004840282018401909252818152949594935090830182828015612cf55780601f10612cca57610100808354040283529160200191612cf5565b820191906000526020600020905b815481529060010190602001808311612cd857829003601f168201915b5050505060088301805460408051602060026001851615610100026000190190941693909304601f8101849004840282018401909252818152949594935090830182828015612d855780601f10612d5a57610100808354040283529160200191612d85565b820191906000526020600020905b815481529060010190602001808311612d6857829003601f168201915b5050505050905089565b60086020526000908152604090205460ff1681565b3360009081526005602052604090205460ff1615612dc157600080fd5b3360008181526005602090815260408083208054600160ff199182168117909255600684528285208054909116821790556018805482019055815160c0810183528581528084018b81528184018b9052606082018a90526080820189905260a0820188905295855260028452919093208151815473ffffffffffffffffffffffffffffffffffffffff1916600160a060020a0390911617815593518051919493612e719390850192910190613210565b506040820151600282015560608201518051612e97916003840191602090910190613210565b5060808201518051612eb3916004840191602090910190613210565b5060a08201518051612ecf916005840191602090910190613210565b5050601480546001810182556000919091527fce6d7b5282bd9a3661ae061feed1dbda4e52ab073b1f9285be6e155d9c38d4ec01805473ffffffffffffffffffffffffffffffffffffffff1916339081179091556040519091507f89105a1c6a3c2fbd471255c66a31ccab604af5697f67d7e2e9a0028c5e4dbd9190612f56904290613d0f565b60405180910390a25050505050565b60009081526020819052604090206004015490565b600160a060020a03811660009081526006602052604081205460ff1615610df257506001610df2565b3360009081526005602052604090205460ff168015612fd8575033600081815260036020526040902054600160a060020a0316145b612fe157600080fd5b336000908152600360209081526040909120855161300792600190920191870190613210565b5033600090815260036020818152604090922060028101869055845161303593919092019190850190613210565b50336000908152600360209081526040909120825161305c92600490920191840190613210565b5050505050565b60195490565b601581815481106123f957fe5b600090815260046020908152604080832060018101546002820154600390920154600e9094529190932054600160a060020a0391821694919093169260ff1690565b6130c133610ecd565b80156130d157506130d1336120f2565b6130da57600080fd5b601a8054600190810180835560408051608081018252828152600160a060020a03808816602080840191825233848601818152606086018b8152600098895260048452878920965187559351868a01805491871673ffffffffffffffffffffffffffffffffffffffff19928316179055905160028701805491909616911617909355905160039093019290925585548452600e8252828420805460ff1990811690915586548552600f909252928290208054909116909317909255915490517fe70b7ae8ea13f66a802dadb0a0d0c4858c493e609cf03153538f0724841610b0906112549085904290613dec565b60056020526000908152604090205460ff1681565b6131e633612982565b6131ef57600080fd5b6000908152600c60205260409020805460ff19166001179055565b601a5481565b828054600181600116156101000203166002900490600052602060002090601f016020900481019282601f1061325157805160ff191683800117855561327e565b8280016001018555821561327e579182015b8281111561327e578251825591602001919060010190613263565b5061328a92915061328e565b5090565b610e1a91905b8082111561328a5760008155600101613294565b80356132b381613f76565b92915050565b80356132b381613f8d565b600082601f8301126132d557600080fd5b81356132e86132e382613edd565b613eb6565b9150808252602083016020830185838301111561330457600080fd5b61330f838284613f34565b50505092915050565b60006020828403121561332a57600080fd5b600061333684846132a8565b949350505050565b6000806040838503121561335157600080fd5b600061335d85856132a8565b925050602061336e858286016132b9565b9150509250929050565b60006020828403121561338a57600080fd5b600061333684846132b9565b6000806000606084860312156133ab57600080fd5b833567ffffffffffffffff8111156133c257600080fd5b6133ce868287016132c4565b93505060206133df868287016132b9565b925050604084013567ffffffffffffffff8111156133fc57600080fd5b613408868287016132c4565b9150509250925092565b6000806000806080858703121561342857600080fd5b843567ffffffffffffffff81111561343f57600080fd5b61344b878288016132c4565b945050602061345c878288016132b9565b935050604085013567ffffffffffffffff81111561347957600080fd5b613485878288016132c4565b925050606085013567ffffffffffffffff8111156134a257600080fd5b6134ae878288016132c4565b91505092959194509250565b600080600080600060a086880312156134d257600080fd5b853567ffffffffffffffff8111156134e957600080fd5b6134f5888289016132c4565b9550506020613506888289016132b9565b945050604086013567ffffffffffffffff81111561352357600080fd5b61352f888289016132c4565b935050606086013567ffffffffffffffff81111561354c57600080fd5b613558888289016132c4565b925050608086013567ffffffffffffffff81111561357557600080fd5b613581888289016132c4565b9150509295509295909350565b60008060008060008060c087890312156135a757600080fd5b863567ffffffffffffffff8111156135be57600080fd5b6135ca89828a016132c4565b96505060206135db89828a016132b9565b955050604087013567ffffffffffffffff8111156135f857600080fd5b61360489828a016132c4565b945050606087013567ffffffffffffffff81111561362157600080fd5b61362d89828a016132c4565b935050608087013567ffffffffffffffff81111561364a57600080fd5b61365689828a016132c4565b92505060a087013567ffffffffffffffff81111561367357600080fd5b61367f89828a016132c4565b9150509295509295509295565b6000806040838503121561369f57600080fd5b60006136ab85856132b9565b925050602061336e858286016132a8565b600080600080600080600080610100898b0312156136d957600080fd5b60006136e58b8b6132b9565b985050602089013567ffffffffffffffff81111561370257600080fd5b61370e8b828c016132c4565b975050604089013567ffffffffffffffff81111561372b57600080fd5b6137378b828c016132c4565b96505060606137488b828c016132b9565b955050608089013567ffffffffffffffff81111561376557600080fd5b6137718b828c016132c4565b94505060a089013567ffffffffffffffff81111561378e57600080fd5b61379a8b828c016132c4565b93505060c089013567ffffffffffffffff8111156137b757600080fd5b6137c38b828c016132c4565b92505060e089013567ffffffffffffffff8111156137e057600080fd5b6137ec8b828c016132c4565b9150509295985092959890939650565b60006138088383613810565b505060200190565b61381981613f18565b82525050565b600061382a82613f0b565b6138348185613f0f565b935061383f83613f05565b8060005b8381101561386d57815161385788826137fc565b975061386283613f05565b925050600101613843565b509495945050505050565b61381981613f23565b600061388c82613f0b565b6138968185613f0f565b93506138a6818560208601613f40565b6138af81613f6c565b9093019392505050565b60006138c482613f0b565b6138ce8185610df2565b93506138de818560208601613f40565b9290920192915050565b60006138f5600c83613f0f565b7f416c726561647920706169640000000000000000000000000000000000000000815260200192915050565b600061392e602483613f0f565b7f50494420616c72656164792072656769737465726564206f6e20626c6f636b6381527f6861696e00000000000000000000000000000000000000000000000000000000602082015260400192915050565b600061398d602083613f0f565b7f537572766579206e756d62657220616c72656164792072656769737465726564815260200192915050565b60006139c6600683613f0f565b7f53656c6c65720000000000000000000000000000000000000000000000000000815260200192915050565b60006139ff601e83613f0f565b7f52657175657374206e6f7420617070726f7665642062792073656c6c65720000815260200192915050565b6000613a38601883613f0f565b7f4e6f742074686520617574686f72697a65642062757965720000000000000000815260200192915050565b6000613a71600583613f0f565b7f4275796572000000000000000000000000000000000000000000000000000000815260200192915050565b61381981610e1a565b6000613ab282846138b9565b9392505050565b602081016132b38284613810565b60808101613ad58287613810565b613ae26020830186613810565b613aef6040830185613a9d565b613afc6060830184613878565b95945050505050565b60c08101613b138289613810565b8181036020830152613b258188613881565b9050613b346040830187613a9d565b8181036060830152613b468186613881565b90508181036080830152613b5a8185613881565b905081810360a0830152613b6e8184613881565b98975050505050505050565b60e08101613b88828a613810565b8181036020830152613b9a8189613881565b9050613ba96040830188613a9d565b8181036060830152613bbb8187613881565b90508181036080830152613bcf8186613881565b905081810360a0830152613be38185613881565b905081810360c0830152613bf78184613881565b9998505050505050505050565b60208082528101613ab2818461381f565b602081016132b38284613878565b60208082528101613ab28184613881565b60a08082528101613c458188613881565b9050613c546020830187613a9d565b8181036040830152613c668186613881565b90508181036060830152613c7a8185613881565b90508181036080830152613c8e8184613881565b979650505050505050565b60c08082528101613caa8189613881565b9050613cb96020830188613a9d565b8181036040830152613ccb8187613881565b90508181036060830152613b468186613881565b602080825281016132b3816138e8565b602080825281016132b381613921565b602080825281016132b381613980565b60408082528101613d1f816139b9565b90506132b36020830184613a9d565b602080825281016132b3816139f2565b602080825281016132b381613a2b565b60408082528101613d1f81613a64565b602081016132b38284613a9d565b60808101613d7a8287613a9d565b613d876020830186613810565b613d946040830185613810565b613afc6060830184613a9d565b60808101613daf8287613a9d565b8181036020830152613dc18186613881565b9050613dd06040830185613a9d565b8181036060830152613de28184613881565b9695505050505050565b60408101613dfa8285613a9d565b613ab26020830184613a9d565b6101208101613e16828c613a9d565b613e23602083018b613a9d565b8181036040830152613e35818a613881565b90508181036060830152613e498189613881565b9050613e586080830188613a9d565b81810360a0830152613e6a8187613881565b905081810360c0830152613e7e8186613881565b905081810360e0830152613e928185613881565b9050818103610100830152613ea78184613881565b9b9a5050505050505050505050565b60405181810167ffffffffffffffff81118282101715613ed557600080fd5b604052919050565b600067ffffffffffffffff821115613ef457600080fd5b506020601f91909101601f19160190565b60200190565b5190565b90815260200190565b60006132b382613f28565b151590565b600160a060020a031690565b82818337506000910152565b60005b83811015613f5b578181015183820152602001613f43565b838111156117665750506000910152565b601f01601f191690565b613f7f81613f18565b8114613f8a57600080fd5b50565b613f7f81610e1a56fea365627a7a7231582069ed716aaff9ea7bbf88865baeba50f6e9d4ebe2898fa62feb437ab42f34b93c6c6578706572696d656e74616cf564736f6c63430005100040",
  "source": "pragma solidity >= 0.5.2;\npragma experimental ABIEncoderV2;\ncontract Land {\n    struct Landreg {\n        uint id;\n        uint area;\n        string city;\n        string state;\n        uint landPrice;\n        string propertyPID;\n        string physicalSurveyNumber;\n        string ipfsHash;\n        string document;\n    }\n\n    struct Buyer{\n        address id;\n        string name;\n        uint age;\n        string city;\n        string email;\n        string verificationId;\n        string documentHash;\n    }\n\n    struct Seller{\n        address id;\n        string name;\n        uint age;\n        string landsOwned;\n        string verificationId;\n        string documentHash;\n    }\n\n    struct LandInspector {\n        uint id;\n        string name;\n        uint age;\n        string designation;\n    }\n\n    struct LandRequest{\n        uint reqId;\n        address sellerId;\n        address buyerId;\n        uint landId;\n    }\n\n    //key value pairs\n    mapping(uint => Landreg) public lands;\n    mapping(uint => LandInspector) public InspectorMapping;\n    mapping(address => Seller) public SellerMapping;\n    mapping(address => Buyer) public BuyerMapping;\n    mapping(uint => LandRequest) public RequestsMapping;\n\n    mapping(address => bool) public RegisteredAddressMapping;\n    mapping(address => bool) public RegisteredSellerMapping;\n    mapping(address => bool) public RegisteredBuyerMapping;\n    mapping(address => bool) public SellerVerification;\n    mapping(address => bool) public SellerRejection;\n    mapping(address => bool) public BuyerVerification;\n    mapping(address => bool) public BuyerRejection;\n    mapping(uint => bool) public LandVerification;\n    mapping(uint => address) public LandOwner;\n    mapping(uint => bool) public RequestStatus;\n    mapping(uint => bool) public RequestedLands;\n    mapping(uint => bool) public PaymentReceived;\n\n    mapping(bytes32 => bool) public registeredPIDs;\n    mapping(bytes32 => bool) public registeredSurveyNumbers;\n\n    address public Land_Inspector;\n    address[] public sellers;\n    address[] public buyers;\n\n    uint public landsCount;\n    uint public inspectorsCount;\n    uint public sellersCount;\n    uint public buyersCount;\n    uint public requestsCount;\n\n    event UserRegistered(address indexed user, string role, uint timestamp);\n    event LandAdded(uint indexed landId, address indexed owner, uint timestamp);\n    event LandRequested(uint indexed reqId, address indexed buyer, uint landId, uint timestamp);\n    event RequestApproved(uint indexed reqId, address indexed seller, uint timestamp);\n    event PaymentDone(address indexed buyer, address indexed seller, uint reqId, uint amount);\n    event OwnershipTransferred(uint indexed landId, address indexed newOwner, uint timestamp);\n    event Verified(address _id);\n    event Rejected(address _id);\n\n    constructor() public{\n        Land_Inspector = msg.sender ;\n        addLandInspector(\"Inspector 1\", 45, \"Tehsil Manager\");\n    }\n\n    function addLandInspector(string memory _name, uint _age, string memory _designation) private {\n        inspectorsCount++;\n        InspectorMapping[inspectorsCount] = LandInspector(inspectorsCount, _name, _age, _designation);\n    }\n\n    function getLandsCount() public view returns (uint) {\n        return landsCount;\n    }\n\n    function getBuyersCount() public view returns (uint) {\n        return buyersCount;\n    }\n\n    function getSellersCount() public view returns (uint) {\n        return sellersCount;\n    }\n\n    function getRequestsCount() public view returns (uint) {\n        return requestsCount;\n    }\n\n    function getArea(uint i) public view returns (uint) {\n        return lands[i].area;\n    }\n\n    function getCity(uint i) public view returns (string memory) {\n        return lands[i].city;\n    }\n\n    function getState(uint i) public view returns (string memory) {\n        return lands[i].state;\n    }\n\n    function getPrice(uint i) public view returns (uint) {\n        return lands[i].landPrice;\n    }\n\n    function getPID(uint i) public view returns (string memory) {\n        return lands[i].propertyPID;\n    }\n\n    function getSurveyNumber(uint i) public view returns (string memory) {\n        return lands[i].physicalSurveyNumber;\n    }\n\n    function getImage(uint i) public view returns (string memory) {\n        return lands[i].ipfsHash;\n    }\n\n    function getDocument(uint i) public view returns (string memory) {\n        return lands[i].document;\n    }\n\n    function getLandOwner(uint id) public view returns (address) {\n        return LandOwner[id];\n    }\n\n    function verifySeller(address _sellerId) public{\n        require(isLandInspector(msg.sender));\n\n        SellerVerification[_sellerId] = true;\n        emit Verified(_sellerId);\n    }\n\n    function rejectSeller(address _sellerId) public{\n        require(isLandInspector(msg.sender));\n\n        SellerRejection[_sellerId] = true;\n        emit Rejected(_sellerId);\n    }\n\n    function verifyBuyer(address _buyerId) public{\n        require(isLandInspector(msg.sender));\n\n        BuyerVerification[_buyerId] = true;\n        emit Verified(_buyerId);\n    }\n\n    function rejectBuyer(address _buyerId) public{\n        require(isLandInspector(msg.sender));\n\n        BuyerRejection[_buyerId] = true;\n        emit Rejected(_buyerId);\n    }\n\n    function verifyLand(uint _landId) public{\n        require(isLandInspector(msg.sender));\n\n        LandVerification[_landId] = true;\n    }\n\n    function isLandVerified(uint _id) public view returns (bool) {\n        if(LandVerification[_id]){\n            return true;\n        }\n    }\n\n    function isVerified(address _id) public view returns (bool) {\n        if(SellerVerification[_id] || BuyerVerification[_id]){\n            return true;\n        }\n    }\n\n    function isRejected(address _id) public view returns (bool) {\n        if(SellerRejection[_id] || BuyerRejection[_id]){\n            return true;\n        }\n    }\n\n    function isSeller(address _id) public view returns (bool) {\n        if(RegisteredSellerMapping[_id]){\n            return true;\n        }\n    }\n\n    function isLandInspector(address _id) public view returns (bool) {\n        if(Land_Inspector == _id){\n            return true;\n        }else{\n            return false;\n        }\n    }\n\n    function isBuyer(address _id) public view returns (bool) {\n        if(RegisteredBuyerMapping[_id]){\n            return true;\n        }\n    }\n\n    function isRegistered(address _id) public view returns (bool) {\n        if(RegisteredAddressMapping[_id]){\n            return true;\n        }\n    }\n\n    function addLand(uint _area, string memory _city, string memory _state, uint landPrice, string memory _propertyPID, string memory _surveyNum, string memory _ipfsHash, string memory _document) public {\n        require((isSeller(msg.sender)) && (isVerified(msg.sender)));\n\n        bytes32 pidHash = keccak256(abi.encodePacked(_propertyPID));\n        bytes32 surveyHash = keccak256(abi.encodePacked(_surveyNum));\n        require(!registeredPIDs[pidHash], \"PID already registered on blockchain\");\n        require(!registeredSurveyNumbers[surveyHash], \"Survey number already registered\");\n\n        registeredPIDs[pidHash] = true;\n        registeredSurveyNumbers[surveyHash] = true;\n\n        landsCount++;\n        lands[landsCount] = Landreg(landsCount, _area, _city, _state, landPrice, _propertyPID, _surveyNum, _ipfsHash, _document);\n        LandOwner[landsCount] = msg.sender;\n\n        emit LandAdded(landsCount, msg.sender, block.timestamp);\n    }\n\n    //registration of seller\n    function registerSeller(string memory _name, uint _age, string memory _landsOwned, string memory _verificationId, string memory _documentHash) public {\n        //require that Seller is not already registered\n        require(!RegisteredAddressMapping[msg.sender]);\n\n        RegisteredAddressMapping[msg.sender] = true;\n        RegisteredSellerMapping[msg.sender] = true ;\n        sellersCount++;\n        SellerMapping[msg.sender] = Seller(msg.sender, _name, _age, _landsOwned, _verificationId, _documentHash);\n        sellers.push(msg.sender);\n\n        emit UserRegistered(msg.sender, \"Seller\", block.timestamp);\n    }\n\n    function updateSeller(string memory _name, uint _age, string memory _landsOwned) public {\n        //require that Seller is already registered\n        require(RegisteredAddressMapping[msg.sender] && (SellerMapping[msg.sender].id == msg.sender));\n\n        SellerMapping[msg.sender].name = _name;\n        SellerMapping[msg.sender].age = _age;\n        SellerMapping[msg.sender].landsOwned = _landsOwned;\n    }\n\n    function getSeller() public view returns( address [] memory ){\n        return(sellers);\n    }\n\n    function getSellerDetails(address i) public view returns (string memory, uint, string memory, string memory, string memory) {\n        return (SellerMapping[i].name, SellerMapping[i].age, SellerMapping[i].landsOwned, SellerMapping[i].verificationId, SellerMapping[i].documentHash);\n    }\n\n    function registerBuyer(string memory _name, uint _age, string memory _city, string memory _email, string memory _verificationId, string memory _documentHash) public {\n        //require that Buyer is not already registered\n        require(!RegisteredAddressMapping[msg.sender]);\n\n        RegisteredAddressMapping[msg.sender] = true;\n        RegisteredBuyerMapping[msg.sender] = true ;\n        buyersCount++;\n        BuyerMapping[msg.sender] = Buyer(msg.sender, _name, _age, _city, _email, _verificationId, _documentHash);\n        buyers.push(msg.sender);\n\n        emit UserRegistered(msg.sender, \"Buyer\", block.timestamp);\n    }\n\n    function updateBuyer(string memory _name, uint _age, string memory _city, string memory _email) public {\n        //require that Buyer is already registered\n        require(RegisteredAddressMapping[msg.sender] && (BuyerMapping[msg.sender].id == msg.sender));\n\n        BuyerMapping[msg.sender].name = _name;\n        BuyerMapping[msg.sender].age = _age;\n        BuyerMapping[msg.sender].city = _city;\n        BuyerMapping[msg.sender].email = _email;\n    }\n\n    function getBuyer() public view returns( address [] memory ){\n        return(buyers);\n    }\n\n    function getBuyerDetails(address i) public view returns (string memory, uint, string memory, string memory, string memory, string memory) {\n        return (BuyerMapping[i].name, BuyerMapping[i].age, BuyerMapping[i].city, BuyerMapping[i].email, BuyerMapping[i].verificationId, BuyerMapping[i].documentHash);\n    }\n\n    function requestLand(address _sellerId, uint _landId) public{\n        require(isBuyer(msg.sender) && isVerified(msg.sender));\n\n        requestsCount++;\n        RequestsMapping[requestsCount] = LandRequest(requestsCount, _sellerId, msg.sender, _landId);\n        RequestStatus[requestsCount] = false;\n        RequestedLands[requestsCount] = true;\n\n        emit LandRequested(requestsCount, msg.sender, _landId, block.timestamp);\n    }\n\n    function getRequestDetails (uint i) public view returns (address, address, uint, bool) {\n        return(RequestsMapping[i].sellerId, RequestsMapping[i].buyerId, RequestsMapping[i].landId, RequestStatus[i]);\n    }\n\n    function isRequested(uint _id) public view returns (bool) {\n        if(RequestedLands[_id]){\n            return true;\n        }\n    }\n\n    function isApproved(uint _id) public view returns (bool) {\n        if(RequestStatus[_id]){\n            return true;\n        }\n    }\n\n    function approveRequest(uint _reqId) public {\n        require((isSeller(msg.sender)) && (isVerified(msg.sender)));\n\n        RequestStatus[_reqId] = true;\n\n        emit RequestApproved(_reqId, msg.sender, block.timestamp);\n    }\n\n    function LandOwnershipTransfer(uint _landId, address _newOwner) public{\n        require(isLandInspector(msg.sender));\n\n        LandOwner[_landId] = _newOwner;\n\n        emit OwnershipTransferred(_landId, _newOwner, block.timestamp);\n    }\n\n    function isPaid(uint _reqId) public view returns (bool) {\n        if(PaymentReceived[_reqId]){\n            return true;\n        }\n    }\n\n    function payment(address payable _receiver, uint _reqId) public payable {\n        require(RequestsMapping[_reqId].buyerId == msg.sender, \"Not the authorized buyer\");\n        require(RequestStatus[_reqId] == true, \"Request not approved by seller\");\n        require(!PaymentReceived[_reqId], \"Already paid\");\n\n        PaymentReceived[_reqId] = true;\n        _receiver.transfer(msg.value);\n\n        emit PaymentDone(msg.sender, _receiver, _reqId, msg.value);\n    }\n}\n",
  "sourcePath": "/Users/manishn/code/Sindhu/Land-Registration-with-Blockchain/contracts/Land.sol",
  "compiler": {
    "name": "solc",
    "version": "0.5.16+commit.9c3226ce.Emscripten.clang"
  },
  "schemaVersion": "3.4.16",
  "updatedAt": "2026-05-26T19:21:10.857Z",
  "networkType": "ethereum",
  "devdoc": {
    "methods": {}
  },
  "userdoc": {
    "methods": {}
  }
}