{
  "contractName": "Land",
  "abi": [
    {
      "inputs": [],
      "payable": false,
      "stateMutability": "nonpayable",
      "type": "constructor"
    },
    {
      "anonymous": false,
      "inputs": [
        {
          "indexed": true,
          "internalType": "uint256",
          "name": "landId",
          "type": "uint256"
        },
        {
          "indexed": true,
          "internalType": "address",
          "name": "owner",
          "type": "address"
        },
        {
          "indexed": false,
          "internalType": "uint256",
          "name": "timestamp",
          "type": "uint256"
        }
      ],
      "name": "LandAdded",
      "type": "event"
    },
    {
      "anonymous": false,
      "inputs": [
        {
          "indexed": true,
          "internalType": "uint256",
          "name": "landId",
          "type": "uint256"
        },
        {
          "indexed": false,
          "internalType": "uint256",
          "name": "timestamp",
          "type": "uint256"
        }
      ],
      "name": "LandRejectedEvent",
      "type": "event"
    },
    {
      "anonymous": false,
      "inputs": [
        {
          "indexed": true,
          "internalType": "uint256",
          "name": "reqId",
          "type": "uint256"
        },
        {
          "indexed": true,
          "internalType": "address",
          "name": "buyer",
          "type": "address"
        },
        {
          "indexed": false,
          "internalType": "uint256",
          "name": "landId",
          "type": "uint256"
        },
        {
          "indexed": false,
          "internalType": "uint256",
          "name": "timestamp",
          "type": "uint256"
        }
      ],
      "name": "LandRequested",
      "type": "event"
    },
    {
      "anonymous": false,
      "inputs": [
        {
          "indexed": true,
          "internalType": "uint256",
          "name": "landId",
          "type": "uint256"
        },
        {
          "indexed": false,
          "internalType": "uint256",
          "name": "timestamp",
          "type": "uint256"
        }
      ],
      "name": "LandVerifiedEvent",
      "type": "event"
    },
    {
      "anonymous": false,
      "inputs": [
        {
          "indexed": true,
          "internalType": "uint256",
          "name": "landId",
          "type": "uint256"
        },
        {
          "indexed": true,
          "internalType": "address",
          "name": "newOwner",
          "type": "address"
        },
        {
          "indexed": false,
          "internalType": "uint256",
          "name": "timestamp",
          "type": "uint256"
        }
      ],
      "name": "OwnershipTransferred",
      "type": "event"
    },
    {
      "anonymous": false,
      "inputs": [
        {
          "indexed": true,
          "internalType": "address",
          "name": "buyer",
          "type": "address"
        },
        {
          "indexed": true,
          "internalType": "address",
          "name": "seller",
          "type": "address"
        },
        {
          "indexed": false,
          "internalType": "uint256",
          "name": "reqId",
          "type": "uint256"
        },
        {
          "indexed": false,
          "internalType": "uint256",
          "name": "amount",
          "type": "uint256"
        }
      ],
      "name": "PaymentDone",
      "type": "event"
    },
    {
      "anonymous": false,
      "inputs": [
        {
          "indexed": false,
          "internalType": "address",
          "name": "_id",
          "type": "address"
        }
      ],
      "name": "Rejected",
      "type": "event"
    },
    {
      "anonymous": false,
      "inputs": [
        {
          "indexed": true,
          "internalType": "uint256",
          "name": "reqId",
          "type": "uint256"
        },
        {
          "indexed": true,
          "internalType": "address",
          "name": "seller",
          "type": "address"
        },
        {
          "indexed": false,
          "internalType": "uint256",
          "name": "timestamp",
          "type": "uint256"
        }
      ],
      "name": "RequestApproved",
      "type": "event"
    },
    {
      "anonymous": false,
      "inputs": [
        {
          "indexed": true,
          "internalType": "address",
          "name": "user",
          "type": "address"
        },
        {
          "indexed": false,
          "internalType": "string",
          "name": "role",
          "type": "string"
        },
        {
          "indexed": false,
          "internalType": "uint256",
          "name": "timestamp",
          "type": "uint256"
        }
      ],
      "name": "UserRegistered",
      "type": "event"
    },
    {
      "anonymous": false,
      "inputs": [
        {
          "indexed": false,
          "internalType": "address",
          "name": "_id",
          "type": "address"
        }
      ],
      "name": "Verified",
      "type": "event"
    },
    {
      "constant": true,
      "inputs": [
        {
          "internalType": "address",
          "name": "",
          "type": "address"
        }
      ],
      "name": "BuyerMapping",
      "outputs": [
        {
          "internalType": "address",
          "name": "id",
          "type": "address"
        },
        {
          "internalType": "string",
          "name": "name",
          "type": "string"
        },
        {
          "internalType": "uint256",
          "name": "age",
          "type": "uint256"
        },
        {
          "internalType": "string",
          "name": "city",
          "type": "string"
        },
        {
          "internalType": "string",
          "name": "email",
          "type": "string"
        },
        {
          "internalType": "string",
          "name": "verificationId",
          "type": "string"
        },
        {
          "internalType": "string",
          "name": "documentHash",
          "type": "string"
        }
      ],
      "payable": false,
      "stateMutability": "view",
      "type": "function"
    },
    {
      "constant": true,
      "inputs": [
        {
          "internalType": "address",
          "name": "",
          "type": "address"
        }
      ],
      "name": "BuyerRejection",
      "outputs": [
        {
          "internalType": "bool",
          "name": "",
          "type": "bool"
        }
      ],
      "payable": false,
      "stateMutability": "view",
      "type": "function"
    },
    {
      "constant": true,
      "inputs": [
        {
          "internalType": "address",
          "name": "",
          "type": "address"
        }
      ],
      "name": "BuyerVerification",
      "outputs": [
        {
          "internalType": "bool",
          "name": "",
          "type": "bool"
        }
      ],
      "payable": false,
      "stateMutability": "view",
      "type": "function"
    },
    {
      "constant": true,
      "inputs": [
        {
          "internalType": "uint256",
          "name": "",
          "type": "uint256"
        }
      ],
      "name": "InspectorMapping",
      "outputs": [
        {
          "internalType": "uint256",
          "name": "id",
          "type": "uint256"
        },
        {
          "internalType": "string",
          "name": "name",
          "type": "string"
        },
        {
          "internalType": "uint256",
          "name": "age",
          "type": "uint256"
        },
        {
          "internalType": "string",
          "name": "designation",
          "type": "string"
        }
      ],
      "payable": false,
      "stateMutability": "view",
      "type": "function"
    },
    {
      "constant": true,
      "inputs": [
        {
          "internalType": "uint256",
          "name": "",
          "type": "uint256"
        }
      ],
      "name": "LandOwner",
      "outputs": [
        {
          "internalType": "address",
          "name": "",
          "type": "address"
        }
      ],
      "payable": false,
      "stateMutability": "view",
      "type": "function"
    },
    {
      "constant": true,
      "inputs": [
        {
          "internalType": "uint256",
          "name": "",
          "type": "uint256"
        }
      ],
      "name": "LandRejection",
      "outputs": [
        {
          "internalType": "bool",
          "name": "",
          "type": "bool"
        }
      ],
      "payable": false,
      "stateMutability": "view",
      "type": "function"
    },
    {
      "constant": true,
      "inputs": [
        {
          "internalType": "uint256",
          "name": "",
          "type": "uint256"
        }
      ],
      "name": "LandVerification",
      "outputs": [
        {
          "internalType": "bool",
          "name": "",
          "type": "bool"
        }
      ],
      "payable": false,
      "stateMutability": "view",
      "type": "function"
    },
    {
      "constant": true,
      "inputs": [],
      "name": "Land_Inspector",
      "outputs": [
        {
          "internalType": "address",
          "name": "",
          "type": "address"
        }
      ],
      "payable": false,
      "stateMutability": "view",
      "type": "function"
    },
    {
      "constant": true,
      "inputs": [
        {
          "internalType": "uint256",
          "name": "",
          "type": "uint256"
        }
      ],
      "name": "PaymentReceived",
      "outputs": [
        {
          "internalType": "bool",
          "name": "",
          "type": "bool"
        }
      ],
      "payable": false,
      "stateMutability": "view",
      "type": "function"
    },
    {
      "constant": true,
      "inputs": [
        {
          "internalType": "address",
          "name": "",
          "type": "address"
        }
      ],
      "name": "RegisteredAddressMapping",
      "outputs": [
        {
          "internalType": "bool",
          "name": "",
          "type": "bool"
        }
      ],
      "payable": false,
      "stateMutability": "view",
      "type": "function"
    },
    {
      "constant": true,
      "inputs": [
        {
          "internalType": "address",
          "name": "",
          "type": "address"
        }
      ],
      "name": "RegisteredBuyerMapping",
      "outputs": [
        {
          "internalType": "bool",
          "name": "",
          "type": "bool"
        }
      ],
      "payable": false,
      "stateMutability": "view",
      "type": "function"
    },
    {
      "constant": true,
      "inputs": [
        {
          "internalType": "address",
          "name": "",
          "type": "address"
        }
      ],
      "name": "RegisteredSellerMapping",
      "outputs": [
        {
          "internalType": "bool",
          "name": "",
          "type": "bool"
        }
      ],
      "payable": false,
      "stateMutability": "view",
      "type": "function"
    },
    {
      "constant": true,
      "inputs": [
        {
          "internalType": "uint256",
          "name": "",
          "type": "uint256"
        }
      ],
      "name": "RequestStatus",
      "outputs": [
        {
          "internalType": "bool",
          "name": "",
          "type": "bool"
        }
      ],
      "payable": false,
      "stateMutability": "view",
      "type": "function"
    },
    {
      "constant": true,
      "inputs": [
        {
          "internalType": "uint256",
          "name": "",
          "type": "uint256"
        }
      ],
      "name": "RequestedLands",
      "outputs": [
        {
          "internalType": "bool",
          "name": "",
          "type": "bool"
        }
      ],
      "payable": false,
      "stateMutability": "view",
      "type": "function"
    },
    {
      "constant": true,
      "inputs": [
        {
          "internalType": "uint256",
          "name": "",
          "type": "uint256"
        }
      ],
      "name": "RequestsMapping",
      "outputs": [
        {
          "internalType": "uint256",
          "name": "reqId",
          "type": "uint256"
        },
        {
          "internalType": "address",
          "name": "sellerId",
          "type": "address"
        },
        {
          "internalType": "address",
          "name": "buyerId",
          "type": "address"
        },
        {
          "internalType": "uint256",
          "name": "landId",
          "type": "uint256"
        },
        {
          "internalType": "uint256",
          "name": "offerPrice",
          "type": "uint256"
        }
      ],
      "payable": false,
      "stateMutability": "view",
      "type": "function"
    },
    {
      "constant": true,
      "inputs": [
        {
          "internalType": "address",
          "name": "",
          "type": "address"
        }
      ],
      "name": "SellerMapping",
      "outputs": [
        {
          "internalType": "address",
          "name": "id",
          "type": "address"
        },
        {
          "internalType": "string",
          "name": "name",
          "type": "string"
        },
        {
          "internalType": "uint256",
          "name": "age",
          "type": "uint256"
        },
        {
          "internalType": "string",
          "name": "landsOwned",
          "type": "string"
        },
        {
          "internalType": "string",
          "name": "verificationId",
          "type": "string"
        },
        {
          "internalType": "string",
          "name": "documentHash",
          "type": "string"
        }
      ],
      "payable": false,
      "stateMutability": "view",
      "type": "function"
    },
    {
      "constant": true,
      "inputs": [
        {
          "internalType": "address",
          "name": "",
          "type": "address"
        }
      ],
      "name": "SellerRejection",
      "outputs": [
        {
          "internalType": "bool",
          "name": "",
          "type": "bool"
        }
      ],
      "payable": false,
      "stateMutability": "view",
      "type": "function"
    },
    {
      "constant": true,
      "inputs": [
        {
          "internalType": "address",
          "name": "",
          "type": "address"
        }
      ],
      "name": "SellerVerification",
      "outputs": [
        {
          "internalType": "bool",
          "name": "",
          "type": "bool"
        }
      ],
      "payable": false,
      "stateMutability": "view",
      "type": "function"
    },
    {
      "constant": true,
      "inputs": [
        {
          "internalType": "uint256",
          "name": "",
          "type": "uint256"
        }
      ],
      "name": "buyers",
      "outputs": [
        {
          "internalType": "address",
          "name": "",
          "type": "address"
        }
      ],
      "payable": false,
      "stateMutability": "view",
      "type": "function"
    },
    {
      "constant": true,
      "inputs": [],
      "name": "buyersCount",
      "outputs": [
        {
          "internalType": "uint256",
          "name": "",
          "type": "uint256"
        }
      ],
      "payable": false,
      "stateMutability": "view",
      "type": "function"
    },
    {
      "constant": true,
      "inputs": [],
      "name": "inspectorsCount",
      "outputs": [
        {
          "internalType": "uint256",
          "name": "",
          "type": "uint256"
        }
      ],
      "payable": false,
      "stateMutability": "view",
      "type": "function"
    },
    {
      "constant": true,
      "inputs": [
        {
          "internalType": "uint256",
          "name": "",
          "type": "uint256"
        }
      ],
      "name": "lands",
      "outputs": [
        {
          "internalType": "uint256",
          "name": "id",
          "type": "uint256"
        },
        {
          "internalType": "uint256",
          "name": "area",
          "type": "uint256"
        },
        {
          "internalType": "string",
          "name": "city",
          "type": "string"
        },
        {
          "internalType": "string",
          "name": "state",
          "type": "string"
        },
        {
          "internalType": "uint256",
          "name": "landPrice",
          "type": "uint256"
        },
        {
          "internalType": "string",
          "name": "propertyPID",
          "type": "string"
        },
        {
          "internalType": "string",
          "name": "physicalSurveyNumber",
          "type": "string"
        },
        {
          "internalType": "string",
          "name": "ipfsHash",
          "type": "string"
        },
        {
          "internalType": "string",
          "name": "document",
          "type": "string"
        }
      ],
      "payable": false,
      "stateMutability": "view",
      "type": "function"
    },
    {
      "constant": true,
      "inputs": [],
      "name": "landsCount",
      "outputs": [
        {
          "internalType": "uint256",
          "name": "",
          "type": "uint256"
        }
      ],
      "payable": false,
      "stateMutability": "view",
      "type": "function"
    },
    {
      "constant": true,
      "inputs": [
        {
          "internalType": "bytes32",
          "name": "",
          "type": "bytes32"
        }
      ],
      "name": "registeredPIDs",
      "outputs": [
        {
          "internalType": "bool",
          "name": "",
          "type": "bool"
        }
      ],
      "payable": false,
      "stateMutability": "view",
      "type": "function"
    },
    {
      "constant": true,
      "inputs": [
        {
          "internalType": "bytes32",
          "name": "",
          "type": "bytes32"
        }
      ],
      "name": "registeredSurveyNumbers",
      "outputs": [
        {
          "internalType": "bool",
          "name": "",
          "type": "bool"
        }
      ],
      "payable": false,
      "stateMutability": "view",
      "type": "function"
    },
    {
      "constant": true,
      "inputs": [],
      "name": "requestsCount",
      "outputs": [
        {
          "internalType": "uint256",
          "name": "",
          "type": "uint256"
        }
      ],
      "payable": false,
      "stateMutability": "view",
      "type": "function"
    },
    {
      "constant": true,
      "inputs": [
        {
          "internalType": "uint256",
          "name": "",
          "type": "uint256"
        }
      ],
      "name": "sellers",
      "outputs": [
        {
          "internalType": "address",
          "name": "",
          "type": "address"
        }
      ],
      "payable": false,
      "stateMutability": "view",
      "type": "function"
    },
    {
      "constant": true,
      "inputs": [],
      "name": "sellersCount",
      "outputs": [
        {
          "internalType": "uint256",
          "name": "",
          "type": "uint256"
        }
      ],
      "payable": false,
      "stateMutability": "view",
      "type": "function"
    },
    {
      "constant": true,
      "inputs": [],
      "name": "getLandsCount",
      "outputs": [
        {
          "internalType": "uint256",
          "name": "",
          "type": "uint256"
        }
      ],
      "payable": false,
      "stateMutability": "view",
      "type": "function"
    },
    {
      "constant": true,
      "inputs": [],
      "name": "getBuyersCount",
      "outputs": [
        {
          "internalType": "uint256",
          "name": "",
          "type": "uint256"
        }
      ],
      "payable": false,
      "stateMutability": "view",
      "type": "function"
    },
    {
      "constant": true,
      "inputs": [],
      "name": "getSellersCount",
      "outputs": [
        {
          "internalType": "uint256",
          "name": "",
          "type": "uint256"
        }
      ],
      "payable": false,
      "stateMutability": "view",
      "type": "function"
    },
    {
      "constant": true,
      "inputs": [],
      "name": "getRequestsCount",
      "outputs": [
        {
          "internalType": "uint256",
          "name": "",
          "type": "uint256"
        }
      ],
      "payable": false,
      "stateMutability": "view",
      "type": "function"
    },
    {
      "constant": true,
      "inputs": [
        {
          "internalType": "uint256",
          "name": "i",
          "type": "uint256"
        }
      ],
      "name": "getArea",
      "outputs": [
        {
          "internalType": "uint256",
          "name": "",
          "type": "uint256"
        }
      ],
      "payable": false,
      "stateMutability": "view",
      "type": "function"
    },
    {
      "constant": true,
      "inputs": [
        {
          "internalType": "uint256",
          "name": "i",
          "type": "uint256"
        }
      ],
      "name": "getCity",
      "outputs": [
        {
          "internalType": "string",
          "name": "",
          "type": "string"
        }
      ],
      "payable": false,
      "stateMutability": "view",
      "type": "function"
    },
    {
      "constant": true,
      "inputs": [
        {
          "internalType": "uint256",
          "name": "i",
          "type": "uint256"
        }
      ],
      "name": "getState",
      "outputs": [
        {
          "internalType": "string",
          "name": "",
          "type": "string"
        }
      ],
      "payable": false,
      "stateMutability": "view",
      "type": "function"
    },
    {
      "constant": true,
      "inputs": [
        {
          "internalType": "uint256",
          "name": "i",
          "type": "uint256"
        }
      ],
      "name": "getPrice",
      "outputs": [
        {
          "internalType": "uint256",
          "name": "",
          "type": "uint256"
        }
      ],
      "payable": false,
      "stateMutability": "view",
      "type": "function"
    },
    {
      "constant": true,
      "inputs": [
        {
          "internalType": "uint256",
          "name": "i",
          "type": "uint256"
        }
      ],
      "name": "getPID",
      "outputs": [
        {
          "internalType": "string",
          "name": "",
          "type": "string"
        }
      ],
      "payable": false,
      "stateMutability": "view",
      "type": "function"
    },
    {
      "constant": true,
      "inputs": [
        {
          "internalType": "uint256",
          "name": "i",
          "type": "uint256"
        }
      ],
      "name": "getSurveyNumber",
      "outputs": [
        {
          "internalType": "string",
          "name": "",
          "type": "string"
        }
      ],
      "payable": false,
      "stateMutability": "view",
      "type": "function"
    },
    {
      "constant": true,
      "inputs": [
        {
          "internalType": "uint256",
          "name": "i",
          "type": "uint256"
        }
      ],
      "name": "getImage",
      "outputs": [
        {
          "internalType": "string",
          "name": "",
          "type": "string"
        }
      ],
      "payable": false,
      "stateMutability": "view",
      "type": "function"
    },
    {
      "constant": true,
      "inputs": [
        {
          "internalType": "uint256",
          "name": "i",
          "type": "uint256"
        }
      ],
      "name": "getDocument",
      "outputs": [
        {
          "internalType": "string",
          "name": "",
          "type": "string"
        }
      ],
      "payable": false,
      "stateMutability": "view",
      "type": "function"
    },
    {
      "constant": true,
      "inputs": [
        {
          "internalType": "uint256",
          "name": "id",
          "type": "uint256"
        }
      ],
      "name": "getLandOwner",
      "outputs": [
        {
          "internalType": "address",
          "name": "",
          "type": "address"
        }
      ],
      "payable": false,
      "stateMutability": "view",
      "type": "function"
    },
    {
      "constant": false,
      "inputs": [
        {
          "internalType": "address",
          "name": "_sellerId",
          "type": "address"
        }
      ],
      "name": "verifySeller",
      "outputs": [],
      "payable": false,
      "stateMutability": "nonpayable",
      "type": "function"
    },
    {
      "constant": false,
      "inputs": [
        {
          "internalType": "address",
          "name": "_sellerId",
          "type": "address"
        }
      ],
      "name": "rejectSeller",
      "outputs": [],
      "payable": false,
      "stateMutability": "nonpayable",
      "type": "function"
    },
    {
      "constant": false,
      "inputs": [
        {
          "internalType": "address",
          "name": "_buyerId",
          "type": "address"
        }
      ],
      "name": "verifyBuyer",
      "outputs": [],
      "payable": false,
      "stateMutability": "nonpayable",
      "type": "function"
    },
    {
      "constant": false,
      "inputs": [
        {
          "internalType": "address",
          "name": "_buyerId",
          "type": "address"
        }
      ],
      "name": "rejectBuyer",
      "outputs": [],
      "payable": false,
      "stateMutability": "nonpayable",
      "type": "function"
    },
    {
      "constant": false,
      "inputs": [
        {
          "internalType": "uint256",
          "name": "_landId",
          "type": "uint256"
        }
      ],
      "name": "verifyLand",
      "outputs": [],
      "payable": false,
      "stateMutability": "nonpayable",
      "type": "function"
    },
    {
      "constant": false,
      "inputs": [
        {
          "internalType": "uint256",
          "name": "_landId",
          "type": "uint256"
        }
      ],
      "name": "rejectLand",
      "outputs": [],
      "payable": false,
      "stateMutability": "nonpayable",
      "type": "function"
    },
    {
      "constant": true,
      "inputs": [
        {
          "internalType": "uint256",
          "name": "_id",
          "type": "uint256"
        }
      ],
      "name": "isLandVerified",
      "outputs": [
        {
          "internalType": "bool",
          "name": "",
          "type": "bool"
        }
      ],
      "payable": false,
      "stateMutability": "view",
      "type": "function"
    },
    {
      "constant": true,
      "inputs": [
        {
          "internalType": "uint256",
          "name": "_id",
          "type": "uint256"
        }
      ],
      "name": "isLandRejected",
      "outputs": [
        {
          "internalType": "bool",
          "name": "",
          "type": "bool"
        }
      ],
      "payable": false,
      "stateMutability": "view",
      "type": "function"
    },
    {
      "constant": true,
      "inputs": [
        {
          "internalType": "address",
          "name": "_id",
          "type": "address"
        }
      ],
      "name": "isVerified",
      "outputs": [
        {
          "internalType": "bool",
          "name": "",
          "type": "bool"
        }
      ],
      "payable": false,
      "stateMutability": "view",
      "type": "function"
    },
    {
      "constant": true,
      "inputs": [
        {
          "internalType": "address",
          "name": "_id",
          "type": "address"
        }
      ],
      "name": "isRejected",
      "outputs": [
        {
          "internalType": "bool",
          "name": "",
          "type": "bool"
        }
      ],
      "payable": false,
      "stateMutability": "view",
      "type": "function"
    },
    {
      "constant": true,
      "inputs": [
        {
          "internalType": "address",
          "name": "_id",
          "type": "address"
        }
      ],
      "name": "isSeller",
      "outputs": [
        {
          "internalType": "bool",
          "name": "",
          "type": "bool"
        }
      ],
      "payable": false,
      "stateMutability": "view",
      "type": "function"
    },
    {
      "constant": true,
      "inputs": [
        {
          "internalType": "address",
          "name": "_id",
          "type": "address"
        }
      ],
      "name": "isLandInspector",
      "outputs": [
        {
          "internalType": "bool",
          "name": "",
          "type": "bool"
        }
      ],
      "payable": false,
      "stateMutability": "view",
      "type": "function"
    },
    {
      "constant": true,
      "inputs": [
        {
          "internalType": "address",
          "name": "_id",
          "type": "address"
        }
      ],
      "name": "isBuyer",
      "outputs": [
        {
          "internalType": "bool",
          "name": "",
          "type": "bool"
        }
      ],
      "payable": false,
      "stateMutability": "view",
      "type": "function"
    },
    {
      "constant": true,
      "inputs": [
        {
          "internalType": "address",
          "name": "_id",
          "type": "address"
        }
      ],
      "name": "isRegistered",
      "outputs": [
        {
          "internalType": "bool",
          "name": "",
          "type": "bool"
        }
      ],
      "payable": false,
      "stateMutability": "view",
      "type": "function"
    },
    {
      "constant": false,
      "inputs": [
        {
          "internalType": "uint256",
          "name": "_area",
          "type": "uint256"
        },
        {
          "internalType": "string",
          "name": "_city",
          "type": "string"
        },
        {
          "internalType": "string",
          "name": "_state",
          "type": "string"
        },
        {
          "internalType": "uint256",
          "name": "landPrice",
          "type": "uint256"
        },
        {
          "internalType": "string",
          "name": "_propertyPID",
          "type": "string"
        },
        {
          "internalType": "string",
          "name": "_surveyNum",
          "type": "string"
        },
        {
          "internalType": "string",
          "name": "_ipfsHash",
          "type": "string"
        },
        {
          "internalType": "string",
          "name": "_document",
          "type": "string"
        }
      ],
      "name": "addLand",
      "outputs": [],
      "payable": false,
      "stateMutability": "nonpayable",
      "type": "function"
    },
    {
      "constant": false,
      "inputs": [
        {
          "internalType": "string",
          "name": "_name",
          "type": "string"
        },
        {
          "internalType": "uint256",
          "name": "_age",
          "type": "uint256"
        },
        {
          "internalType": "string",
          "name": "_landsOwned",
          "type": "string"
        },
        {
          "internalType": "string",
          "name": "_verificationId",
          "type": "string"
        },
        {
          "internalType": "string",
          "name": "_documentHash",
          "type": "string"
        }
      ],
      "name": "registerSeller",
      "outputs": [],
      "payable": false,
      "stateMutability": "nonpayable",
      "type": "function"
    },
    {
      "constant": false,
      "inputs": [
        {
          "internalType": "string",
          "name": "_name",
          "type": "string"
        },
        {
          "internalType": "uint256",
          "name": "_age",
          "type": "uint256"
        },
        {
          "internalType": "string",
          "name": "_landsOwned",
          "type": "string"
        }
      ],
      "name": "updateSeller",
      "outputs": [],
      "payable": false,
      "stateMutability": "nonpayable",
      "type": "function"
    },
    {
      "constant": true,
      "inputs": [],
      "name": "getSeller",
      "outputs": [
        {
          "internalType": "address[]",
          "name": "",
          "type": "address[]"
        }
      ],
      "payable": false,
      "stateMutability": "view",
      "type": "function"
    },
    {
      "constant": true,
      "inputs": [
        {
          "internalType": "address",
          "name": "i",
          "type": "address"
        }
      ],
      "name": "getSellerDetails",
      "outputs": [
        {
          "internalType": "string",
          "name": "",
          "type": "string"
        },
        {
          "internalType": "uint256",
          "name": "",
          "type": "uint256"
        },
        {
          "internalType": "string",
          "name": "",
          "type": "string"
        },
        {
          "internalType": "string",
          "name": "",
          "type": "string"
        },
        {
          "internalType": "string",
          "name": "",
          "type": "string"
        }
      ],
      "payable": false,
      "stateMutability": "view",
      "type": "function"
    },
    {
      "constant": false,
      "inputs": [
        {
          "internalType": "string",
          "name": "_name",
          "type": "string"
        },
        {
          "internalType": "uint256",
          "name": "_age",
          "type": "uint256"
        },
        {
          "internalType": "string",
          "name": "_city",
          "type": "string"
        },
        {
          "internalType": "string",
          "name": "_email",
          "type": "string"
        },
        {
          "internalType": "string",
          "name": "_verificationId",
          "type": "string"
        },
        {
          "internalType": "string",
          "name": "_documentHash",
          "type": "string"
        }
      ],
      "name": "registerBuyer",
      "outputs": [],
      "payable": false,
      "stateMutability": "nonpayable",
      "type": "function"
    },
    {
      "constant": false,
      "inputs": [
        {
          "internalType": "string",
          "name": "_name",
          "type": "string"
        },
        {
          "internalType": "uint256",
          "name": "_age",
          "type": "uint256"
        },
        {
          "internalType": "string",
          "name": "_city",
          "type": "string"
        },
        {
          "internalType": "string",
          "name": "_email",
          "type": "string"
        }
      ],
      "name": "updateBuyer",
      "outputs": [],
      "payable": false,
      "stateMutability": "nonpayable",
      "type": "function"
    },
    {
      "constant": true,
      "inputs": [],
      "name": "getBuyer",
      "outputs": [
        {
          "internalType": "address[]",
          "name": "",
          "type": "address[]"
        }
      ],
      "payable": false,
      "stateMutability": "view",
      "type": "function"
    },
    {
      "constant": true,
      "inputs": [
        {
          "internalType": "address",
          "name": "i",
          "type": "address"
        }
      ],
      "name": "getBuyerDetails",
      "outputs": [
        {
          "internalType": "string",
          "name": "",
          "type": "string"
        },
        {
          "internalType": "uint256",
          "name": "",
          "type": "uint256"
        },
        {
          "internalType": "string",
          "name": "",
          "type": "string"
        },
        {
          "internalType": "string",
          "name": "",
          "type": "string"
        },
        {
          "internalType": "string",
          "name": "",
          "type": "string"
        },
        {
          "internalType": "string",
          "name": "",
          "type": "string"
        }
      ],
      "payable": false,
      "stateMutability": "view",
      "type": "function"
    },
    {
      "constant": false,
      "inputs": [
        {
          "internalType": "address",
          "name": "_sellerId",
          "type": "address"
        },
        {
          "internalType": "uint256",
          "name": "_landId",
          "type": "uint256"
        },
        {
          "internalType": "uint256",
          "name": "_offerPrice",
          "type": "uint256"
        }
      ],
      "name": "requestLand",
      "outputs": [],
      "payable": false,
      "stateMutability": "nonpayable",
      "type": "function"
    },
    {
      "constant": true,
      "inputs": [
        {
          "internalType": "uint256",
          "name": "i",
          "type": "uint256"
        }
      ],
      "name": "getRequestDetails",
      "outputs": [
        {
          "internalType": "address",
          "name": "",
          "type": "address"
        },
        {
          "internalType": "address",
          "name": "",
          "type": "address"
        },
        {
          "internalType": "uint256",
          "name": "",
          "type": "uint256"
        },
        {
          "internalType": "bool",
          "name": "",
          "type": "bool"
        },
        {
          "internalType": "uint256",
          "name": "",
          "type": "uint256"
        }
      ],
      "payable": false,
      "stateMutability": "view",
      "type": "function"
    },
    {
      "constant": true,
      "inputs": [
        {
          "internalType": "uint256",
          "name": "_id",
          "type": "uint256"
        }
      ],
      "name": "isRequested",
      "outputs": [
        {
          "internalType": "bool",
          "name": "",
          "type": "bool"
        }
      ],
      "payable": false,
      "stateMutability": "view",
      "type": "function"
    },
    {
      "constant": true,
      "inputs": [
        {
          "internalType": "uint256",
          "name": "_id",
          "type": "uint256"
        }
      ],
      "name": "isApproved",
      "outputs": [
        {
          "internalType": "bool",
          "name": "",
          "type": "bool"
        }
      ],
      "payable": false,
      "stateMutability": "view",
      "type": "function"
    },
    {
      "constant": false,
      "inputs": [
        {
          "internalType": "uint256",
          "name": "_reqId",
          "type": "uint256"
        }
      ],
      "name": "approveRequest",
      "outputs": [],
      "payable": false,
      "stateMutability": "nonpayable",
      "type": "function"
    },
    {
      "constant": false,
      "inputs": [
        {
          "internalType": "uint256",
          "name": "_landId",
          "type": "uint256"
        },
        {
          "internalType": "address",
          "name": "_newOwner",
          "type": "address"
        }
      ],
      "name": "LandOwnershipTransfer",
      "outputs": [],
      "payable": false,
      "stateMutability": "nonpayable",
      "type": "function"
    },
    {
      "constant": true,
      "inputs": [
        {
          "internalType": "uint256",
          "name": "_reqId",
          "type": "uint256"
        }
      ],
      "name": "isPaid",
      "outputs": [
        {
          "internalType": "bool",
          "name": "",
          "type": "bool"
        }
      ],
      "payable": false,
      "stateMutability": "view",
      "type": "function"
    },
    {
      "constant": false,
      "inputs": [
        {
          "internalType": "address payable",
          "name": "_receiver",
          "type": "address"
        },
        {
          "internalType": "uint256",
          "name": "_reqId",
          "type": "uint256"
        }
      ],
      "name": "payment",
      "outputs": [],
      "payable": true,
      "stateMutability": "payable",
      "type": "function"
    }
  ],
  "bytecode": "0x60806040523480156200001157600080fd5b5060148054600160a060020a03191633179055604080518082018252600b81527f496e73706563746f7220310000000000000000000000000000000000000000006020808301919091528251808401909352600e83527f54656873696c204d616e6167657200000000000000000000000000000000000090830152620000a391602d90640100000000620000a9810204565b620001d7565b601880546001908101918290556040805160808101825283815260208082018881528284018890526060830187905260009586528482529290942081518155915180519194929362000102939085019291019062000132565b5060408201516002820155606082015180516200012a91600384019160209091019062000132565b505050505050565b828054600181600116156101000203166002900490600052602060002090601f016020900481019282601f106200017557805160ff1916838001178555620001a5565b82800160010185558215620001a5579182015b82811115620001a557825182559160200191906001019062000188565b50620001b3929150620001b7565b5090565b620001d491905b80821115620001b35760008155600101620001be565b90565b6141f580620001e76000396000f3fe6080604052600436106104b8576000357c010000000000000000000000000000000000000000000000000000000090048063a4ea63151161027b578063dd9d122d11610160578063e7572230116100d8578063f2aa8218116100a7578063f58f85b51161008c578063f58f85b514610db2578063f9c43bdf14610dd2578063fbfa4b7f14610df2576104b8565b8063f2aa821814610d61578063f34d4c6314610d81576104b8565b8063e757223014610cec578063ee95feaf14610d0c578063f07ddf0b14610d2c578063f0d3a9df14610d4c576104b8565b8063e165af871161012f578063e261f1e511610114578063e261f1e514610c77578063e4b2611514610cac578063e706d55514610ccc576104b8565b8063e165af8714610c37578063e1ecc79414610c57576104b8565b8063dd9d122d14610ba0578063dec091ad14610bb5578063def936c314610be7578063e0057f9814610c17576104b8565b8063bed403c7116101f3578063cee26ed5116101c2578063d7130651116101a7578063d713065114610b4b578063d7d1bbdb14610b6b578063dbd0e1b614610b8b576104b8565b8063cee26ed514610b0b578063d1760e6014610b2b576104b8565b8063bed403c714610a8b578063c3c5a54714610aab578063cad1ab3b14610acb578063cd392a8314610aeb576104b8565b8063afe1a6561161024a578063b3c8fe851161022f578063b3c8fe8514610a25578063b9209e3314610a56578063ba49a08c14610a76576104b8565b8063afe1a656146109d4578063b0a5dcd3146109f4576104b8565b8063a4ea631514610941578063a6dc41fb14610961578063a8c269af14610981578063ab517074146109a1576104b8565b8063603daf9a116103a15780638965cde1116103195780639ae9711e116102e85780639dc1bfa9116102cd5780639dc1bfa9146108e1578063a47d4c0214610901578063a4a0f6c014610921576104b8565b80639ae9711e146108ac5780639d7167ba146108c1576104b8565b80638965cde11461083757806389d2135414610857578063941e242614610877578063989376b41461088c576104b8565b80636814800b116103705780636cbf6cf8116103555780636cbf6cf8146107d75780637910867b146107f75780638354650114610817576104b8565b80636814800b1461078557806368cfe6ee146107a5576104b8565b8063603daf9a1461071057806363f17143146107325780636490c7a81461075257806367a09c2314610772576104b8565b80632a55feec1161043457806348a46bd3116104035780634daa9dae116103e85780634daa9dae146106b057806351046e37146106d0578063601e7c34146106f0576104b8565b806348a46bd31461066e5780634c3231af1461068e576104b8565b80632a55feec146105f95780633410452a146106195780633f9b250a1461062e57806344c9af281461064e576104b8565b8063170f39091161048b5780631a07f76e116104705780631a07f76e146105a45780631c9afd0f146105c45780632607aafa146105d9576104b8565b8063170f3909146105625780631869a38b14610584576104b8565b806304b5f813146104bd57806307d56ac0146104f3578063155fec721461052057806316d9d66614610540575b600080fd5b3480156104c957600080fd5b506104dd6104d836600461359a565b610e07565b6040516104ea9190613e3b565b60405180910390f35b3480156104ff57600080fd5b5061051361050e36600461359a565b610e27565b6040516104ea9190613e49565b34801561052c57600080fd5b506104dd61053b36600461359a565b610ec9565b34801561054c57600080fd5b50610555610ee8565b6040516104ea9190613f84565b34801561056e57600080fd5b50610577610eef565b6040516104ea9190613cd1565b34801561059057600080fd5b5061057761059f36600461359a565b610efe565b3480156105b057600080fd5b506104dd6105bf36600461359a565b610f19565b3480156105d057600080fd5b50610555610f2e565b3480156105e557600080fd5b506105136105f436600461359a565b610f34565b34801561060557600080fd5b506104dd6106143660046134ed565b610f9f565b34801561062557600080fd5b50610555610fc8565b34801561063a57600080fd5b5061051361064936600461359a565b610fce565b34801561065a57600080fd5b5061051361066936600461359a565b611039565b34801561067a57600080fd5b506104dd6106893660046134ed565b6110a4565b34801561069a57600080fd5b506106ae6106a936600461359a565b6110f0565b005b3480156106bc57600080fd5b506104dd6106cb36600461359a565b61116c565b3480156106dc57600080fd5b506106ae6106eb36600461354d565b611181565b3480156106fc57600080fd5b506104dd61070b3660046134ed565b6112af565b34801561071c57600080fd5b506107256112c4565b6040516104ea9190613e2a565b34801561073e57600080fd5b506104dd61074d3660046134ed565b611326565b34801561075e57600080fd5b5061055561076d36600461359a565b61133b565b6106ae610780366004613513565b611350565b34801561079157600080fd5b506106ae6107a03660046134ed565b6114dc565b3480156107b157600080fd5b506107c56107c03660046134ed565b61154c565b6040516104ea96959493929190613ebf565b3480156107e357600080fd5b506104dd6107f236600461359a565b611863565b34801561080357600080fd5b506104dd61081236600461359a565b611882565b34801561082357600080fd5b506104dd61083236600461359a565b6118a1565b34801561084357600080fd5b506106ae6108523660046134ed565b6118b6565b34801561086357600080fd5b506104dd61087236600461359a565b61191b565b34801561088357600080fd5b50610555611930565b34801561089857600080fd5b506104dd6108a73660046134ed565b611936565b3480156108b857600080fd5b5061055561194b565b3480156108cd57600080fd5b506106ae6108dc3660046135b8565b611951565b3480156108ed57600080fd5b506105776108fc36600461359a565b6119e8565b34801561090d57600080fd5b506104dd61091c3660046134ed565b611a03565b34801561092d57600080fd5b5061051361093c36600461359a565b611a18565b34801561094d57600080fd5b506104dd61095c36600461359a565b611a83565b34801561096d57600080fd5b506104dd61097c3660046134ed565b611a98565b34801561098d57600080fd5b506104dd61099c36600461359a565b611aad565b3480156109ad57600080fd5b506109c16109bc3660046134ed565b611ac2565b6040516104ea9796959493929190613da0565b3480156109e057600080fd5b506106ae6109ef3660046138d4565b611dbe565b348015610a0057600080fd5b50610a14610a0f36600461359a565b6120cf565b6040516104ea959493929190613f92565b348015610a3157600080fd5b50610a45610a403660046134ed565b61210a565b6040516104ea959493929190613e5a565b348015610a6257600080fd5b506104dd610a713660046134ed565b61238a565b348015610a8257600080fd5b506105556123d5565b348015610a9757600080fd5b506106ae610aa63660046138a4565b6123db565b348015610ab757600080fd5b506104dd610ac63660046134ed565b612457565b348015610ad757600080fd5b506106ae610ae63660046137a6565b612480565b348015610af757600080fd5b506104dd610b0636600461359a565b612665565b348015610b1757600080fd5b50610577610b2636600461359a565b612684565b348015610b3757600080fd5b506106ae610b463660046134ed565b6126ab565b348015610b5757600080fd5b50610513610b6636600461359a565b612710565b348015610b7757600080fd5b506106ae610b8636600461359a565b61277e565b348015610b9757600080fd5b506107256127f8565b348015610bac57600080fd5b50610555612858565b348015610bc157600080fd5b50610bd5610bd03660046134ed565b61285e565b6040516104ea96959493929190613d2b565b348015610bf357600080fd5b50610c07610c0236600461359a565b612ac7565b6040516104ea9493929190613fc7565b348015610c2357600080fd5b506104dd610c3236600461359a565b612c05565b348015610c4357600080fd5b506104dd610c523660046134ed565b612c1a565b348015610c6357600080fd5b506106ae610c723660046134ed565b612c43565b348015610c8357600080fd5b50610c97610c9236600461359a565b612ca8565b6040516104ea99989796959493929190614023565b348015610cb857600080fd5b506104dd610cc73660046134ed565b613027565b348015610cd857600080fd5b506106ae610ce73660046136d2565b61303c565b348015610cf857600080fd5b50610555610d0736600461359a565b6131fd565b348015610d1857600080fd5b506104dd610d273660046134ed565b613212565b348015610d3857600080fd5b506106ae610d4736600461362a565b61323b565b348015610d5857600080fd5b506105556132fb565b348015610d6d57600080fd5b50610577610d7c36600461359a565b613301565b348015610d8d57600080fd5b50610da1610d9c36600461359a565b61330e565b6040516104ea959493929190613cdf565b348015610dbe57600080fd5b506104dd610dcd3660046134ed565b613359565b348015610dde57600080fd5b506106ae610ded36600461359a565b61336e565b348015610dfe57600080fd5b506105556133df565b6000818152600d602052604081205460ff1615610e22575060015b919050565b6000818152602081815260409182902060050180548351601f6002600019610100600186161502019093169290920491820184900484028101840190945280845260609392830182828015610ebd5780601f10610e9257610100808354040283529160200191610ebd565b820191906000526020600020905b815481529060010190602001808311610ea057829003601f168201915b50505050509050919050565b60008181526010602052604081205460ff1615610e2257506001610e22565b6017545b90565b601454600160a060020a031681565b6000908152600e6020526040902054600160a060020a031690565b60116020526000908152604090205460ff1681565b60175481565b6000818152602081815260409182902060070180548351601f6002600019610100600186161502019093169290920491820184900484028101840190945280845260609392830182828015610ebd5780601f10610e9257610100808354040283529160200191610ebd565b600160a060020a03811660009081526007602052604081205460ff1615610e2257506001610e22565b601b5490565b6000818152602081815260409182902060080180548351601f6002600019610100600186161502019093169290920491820184900484028101840190945280845260609392830182828015610ebd5780601f10610e9257610100808354040283529160200191610ebd565b6000818152602081815260409182902060030180548351601f6002600019610100600186161502019093169290920491820184900484028101840190945280845260609392830182828015610ebd5780601f10610e9257610100808354040283529160200191610ebd565b600160a060020a03811660009081526009602052604081205460ff16806110e35750600160a060020a0382166000908152600b602052604090205460ff165b15610e2257506001610e22565b6110f933612c1a565b61110257600080fd5b6000818152600d60209081526040808320805460ff19908116600117909155600c90925291829020805490911690555181907f0e159cd9e8b51372534ff6e42e970a35252439d2fac105a0bce990188fa29e4390611161904290613f84565b60405180910390a250565b60106020526000908152604090205460ff1681565b61118a33610f9f565b801561119a575061119a3361238a565b6111a357600080fd5b601b805460019081018083556040805160a081018252828152600160a060020a03808916602080840191825233848601818152606086018c8152608087018c81526000998a526004808652898b20985189559551888c01805491891673ffffffffffffffffffffffffffffffffffffffff19928316179055925160028901805491909816931692909217909555935160038601559251939091019290925585548452600f8252828420805460ff19908116909155865485526010909252928290208054909116909317909255915490517fe70b7ae8ea13f66a802dadb0a0d0c4858c493e609cf03153538f0724841610b0906112a29086904290614008565b60405180910390a3505050565b60066020526000908152604090205460ff1681565b6060601680548060200260200160405190810160405280929190818152602001828054801561131c57602002820191906000526020600020905b8154600160a060020a031681526001909101906020018083116112fe575b5050505050905090565b60096020526000908152604090205460ff1681565b60009081526020819052604090206001015490565b600081815260046020526040902060020154600160a060020a031633146113ac576040517f08c379a00000000000000000000000000000000000000000000000000000000081526004016113a390613f64565b60405180910390fd5b6000818152600f602052604090205460ff1615156001146113f9576040517f08c379a00000000000000000000000000000000000000000000000000000000081526004016113a390613f54565b60008181526011602052604090205460ff1615611442576040517f08c379a00000000000000000000000000000000000000000000000000000000081526004016113a390613f05565b600081815260116020526040808220805460ff1916600117905551600160a060020a038416913480156108fc02929091818181858888f1935050505015801561148a57600080fd5b5081600160a060020a031633600160a060020a03167f2390c37eb86998d7803bf89b5589b6e6c9f0eb42239910f17ac78d2b0bc5451683346040516114d0929190614008565b60405180910390a35050565b6114e533612c1a565b6114ee57600080fd5b600160a060020a0381166000908152600a602052604090819020805460ff19166001179055517f6a6455914f452787eb3985452aceedc1000fb545e394eb3b370e3d08958e0a5b90611541908390613cd1565b60405180910390a150565b600160a060020a03811660009081526003602081815260408084206002808201546001808401805486519281161561010002600019011693909304601f810187900487028201870190955284815260609796889687968796879695949381019360048201936005830193600690930192889183018282801561160f5780601f106115e45761010080835404028352916020019161160f565b820191906000526020600020905b8154815290600101906020018083116115f257829003601f168201915b5050875460408051602060026001851615610100026000190190941693909304601f8101849004840282018401909252818152959b508994509250840190508282801561169d5780601f106116725761010080835404028352916020019161169d565b820191906000526020600020905b81548152906001019060200180831161168057829003601f168201915b5050865460408051602060026001851615610100026000190190941693909304601f81018490048402820184019092528181529599508894509250840190508282801561172b5780601f106117005761010080835404028352916020019161172b565b820191906000526020600020905b81548152906001019060200180831161170e57829003601f168201915b5050855460408051602060026001851615610100026000190190941693909304601f8101849004840282018401909252818152959850879450925084019050828280156117b95780601f1061178e576101008083540402835291602001916117b9565b820191906000526020600020905b81548152906001019060200180831161179c57829003601f168201915b5050845460408051602060026001851615610100026000190190941693909304601f8101849004840282018401909252818152959750869450925084019050828280156118475780601f1061181c57610100808354040283529160200191611847565b820191906000526020600020905b81548152906001019060200180831161182a57829003601f168201915b5050505050905095509550955095509550955091939550919395565b6000818152600c602052604081205460ff1615610e2257506001610e22565b6000818152600f602052604081205460ff1615610e2257506001610e22565b600c6020526000908152604090205460ff1681565b6118bf33612c1a565b6118c857600080fd5b600160a060020a0381166000908152600b602052604090819020805460ff19166001179055517faf77f8960cf590e245ec8b6d41c193a5dcacad8986ae4eb57ac9e5be7b6af03190611541908390613cd1565b600f6020526000908152604090205460ff1681565b60185481565b600b6020526000908152604090205460ff1681565b60195481565b3360009081526005602052604090205460ff168015611986575033600081815260026020526040902054600160a060020a0316145b61198f57600080fd5b33600090815260026020908152604090912084516119b5926001909201918601906133e5565b5033600090815260026020818152604090922090810184905582516119e2926003909201918401906133e5565b50505050565b600e60205260009081526040902054600160a060020a031681565b60076020526000908152604090205460ff1681565b6000818152602081815260409182902060060180548351601f6002600019610100600186161502019093169290920491820184900484028101840190945280845260609392830182828015610ebd5780601f10610e9257610100808354040283529160200191610ebd565b600d6020526000908152604090205460ff1681565b600a6020526000908152604090205460ff1681565b60126020526000908152604090205460ff1681565b6003602090815260009182526040918290208054600180830180548651600261010094831615949094026000190190911692909204601f8101869004860283018601909652858252600160a060020a03909216949293909290830182828015611b6c5780601f10611b4157610100808354040283529160200191611b6c565b820191906000526020600020905b815481529060010190602001808311611b4f57829003601f168201915b505050506002838101546003850180546040805160206001841615610100026000190190931695909504601f810183900483028601830190915280855295969295929450909190830182828015611c045780601f10611bd957610100808354040283529160200191611c04565b820191906000526020600020905b815481529060010190602001808311611be757829003601f168201915b5050505060048301805460408051602060026001851615610100026000190190941693909304601f8101849004840282018401909252818152949594935090830182828015611c945780601f10611c6957610100808354040283529160200191611c94565b820191906000526020600020905b815481529060010190602001808311611c7757829003601f168201915b5050505060058301805460408051602060026001851615610100026000190190941693909304601f8101849004840282018401909252818152949594935090830182828015611d245780601f10611cf957610100808354040283529160200191611d24565b820191906000526020600020905b815481529060010190602001808311611d0757829003601f168201915b5050505060068301805460408051602060026001851615610100026000190190941693909304601f8101849004840282018401909252818152949594935090830182828015611db45780601f10611d8957610100808354040283529160200191611db4565b820191906000526020600020905b815481529060010190602001808311611d9757829003601f168201915b5050505050905087565b611dc733613212565b8015611dd75750611dd73361238a565b611de057600080fd5b600084604051602001611df39190613cbe565b604051602081830303815290604052805190602001209050600084604051602001611e1e9190613cbe565b60408051601f1981840301815291815281516020928301206000858152601290935291205490915060ff1615611e80576040517f08c379a00000000000000000000000000000000000000000000000000000000081526004016113a390613f15565b60008181526013602052604090205460ff1615611ec9576040517f08c379a00000000000000000000000000000000000000000000000000000000081526004016113a390613f25565b60016012600084815260200190815260200160002060006101000a81548160ff02191690831515021790555060016013600083815260200190815260200160002060006101000a81548160ff02191690831515021790555060176000815480929190600101919050555060405180610120016040528060175481526020018b81526020018a815260200189815260200188815260200187815260200186815260200185815260200184815250600080601754815260200190815260200160002060008201518160000155602082015181600101556040820151816002019080519060200190611fb99291906133e5565b5060608201518051611fd59160038401916020909101906133e5565b506080820151600482015560a08201518051611ffb9160058401916020909101906133e5565b5060c082015180516120179160068401916020909101906133e5565b5060e082015180516120339160078401916020909101906133e5565b5061010082015180516120509160088401916020909101906133e5565b5050601780546000908152600e602052604090819020805473ffffffffffffffffffffffffffffffffffffffff19163390811790915591549051919250907f5713491f1d31ec27bd9a43113bf073a98e7a3c1ab3095c5cc1a0a79fa731d008906120bb904290613f84565b60405180910390a350505050505050505050565b6004602081905260009182526040909120805460018201546002830154600384015493909401549193600160a060020a039182169391169185565b600160a060020a0381166000908152600260208181526040808420808401546001808301805485519281161561010002600019011696909604601f8101869004860282018601909452838152606096958795869586959294936003840193600481019360059091019287918301828280156121c65780601f1061219b576101008083540402835291602001916121c6565b820191906000526020600020905b8154815290600101906020018083116121a957829003601f168201915b5050865460408051602060026001851615610100026000190190941693909304601f8101849004840282018401909252818152959a50889450925084019050828280156122545780601f1061222957610100808354040283529160200191612254565b820191906000526020600020905b81548152906001019060200180831161223757829003601f168201915b5050855460408051602060026001851615610100026000190190941693909304601f8101849004840282018401909252818152959850879450925084019050828280156122e25780601f106122b7576101008083540402835291602001916122e2565b820191906000526020600020905b8154815290600101906020018083116122c557829003601f168201915b5050845460408051602060026001851615610100026000190190941693909304601f8101849004840282018401909252818152959750869450925084019050828280156123705780601f1061234557610100808354040283529160200191612370565b820191906000526020600020905b81548152906001019060200180831161235357829003601f168201915b505050505090509450945094509450945091939590929450565b600160a060020a03811660009081526008602052604081205460ff16806110e35750600160a060020a0382166000908152600a602052604090205460ff1615610e2257506001610e22565b601a5481565b6123e433612c1a565b6123ed57600080fd5b6000828152600e602052604090819020805473ffffffffffffffffffffffffffffffffffffffff1916600160a060020a038416908117909155905183907ff5f027662abd4d49933f26c593d190a27b51aa8bc30ed32979c66ee7a1ffab5d906114d0904290613f84565b600160a060020a03811660009081526005602052604081205460ff1615610e2257506001610e22565b3360009081526005602052604090205460ff161561249d57600080fd5b3360008181526005602090815260408083208054600160ff19918216811790925560078452828520805490911682179055601a805482019055815160e0810183528581528084018c81528184018c9052606082018b9052608082018a905260a0820189905260c0820188905295855260038452919093208151815473ffffffffffffffffffffffffffffffffffffffff1916600160a060020a039091161781559351805191949361255493908501929101906133e5565b50604082015160028201556060820151805161257a9160038401916020909101906133e5565b50608082015180516125969160048401916020909101906133e5565b5060a082015180516125b29160058401916020909101906133e5565b5060c082015180516125ce9160068401916020909101906133e5565b5050601680546001810182556000919091527fd833147d7dc355ba459fc788f669e58cfaf9dc25ddcd0702e87d69c7b512428901805473ffffffffffffffffffffffffffffffffffffffff1916339081179091556040519091507f89105a1c6a3c2fbd471255c66a31ccab604af5697f67d7e2e9a0028c5e4dbd9190612655904290613f74565b60405180910390a2505050505050565b60008181526011602052604081205460ff1615610e2257506001610e22565b6015818154811061269157fe5b600091825260209091200154600160a060020a0316905081565b6126b433612c1a565b6126bd57600080fd5b600160a060020a03811660009081526008602052604090819020805460ff19166001179055517f6a6455914f452787eb3985452aceedc1000fb545e394eb3b370e3d08958e0a5b90611541908390613cd1565b600081815260208181526040918290206002908101805484516001821615610100026000190190911692909204601f81018490048402830184019094528382526060939192909190830182828015610ebd5780601f10610e9257610100808354040283529160200191610ebd565b61278733613212565b801561279757506127973361238a565b6127a057600080fd5b6000818152600f602052604090819020805460ff1916600117905551339082907f4def62da440b39db2661de60aa3dad0479ac27d4c22597d6e14c7441774f8a31906127ed904290613f84565b60405180910390a350565b6060601580548060200260200160405190810160405280929190818152602001828054801561131c57602002820191906000526020600020908154600160a060020a031681526001909101906020018083116112fe575050505050905090565b60195490565b6002602081815260009283526040928390208054600180830180548751601f60001994831615610100029490940190911696909604918201859004850286018501909652808552600160a060020a03909116949193928301828280156129055780601f106128da57610100808354040283529160200191612905565b820191906000526020600020905b8154815290600101906020018083116128e857829003601f168201915b505050506002838101546003850180546040805160206001841615610100026000190190931695909504601f81018390048302860183019091528085529596929592945090919083018282801561299d5780601f106129725761010080835404028352916020019161299d565b820191906000526020600020905b81548152906001019060200180831161298057829003601f168201915b5050505060048301805460408051602060026001851615610100026000190190941693909304601f8101849004840282018401909252818152949594935090830182828015612a2d5780601f10612a0257610100808354040283529160200191612a2d565b820191906000526020600020905b815481529060010190602001808311612a1057829003601f168201915b5050505060058301805460408051602060026001851615610100026000190190941693909304601f8101849004840282018401909252818152949594935090830182828015612abd5780601f10612a9257610100808354040283529160200191612abd565b820191906000526020600020905b815481529060010190602001808311612aa057829003601f168201915b5050505050905086565b600160208181526000928352604092839020805481840180548651600296821615610100026000190190911695909504601f81018590048502860185019096528585529094919392909190830182828015612b635780601f10612b3857610100808354040283529160200191612b63565b820191906000526020600020905b815481529060010190602001808311612b4657829003601f168201915b505050506002838101546003850180546040805160206001841615610100026000190190931695909504601f810183900483028601830190915280855295969295929450909190830182828015612bfb5780601f10612bd057610100808354040283529160200191612bfb565b820191906000526020600020905b815481529060010190602001808311612bde57829003601f168201915b5050505050905084565b60136020526000908152604090205460ff1681565b601454600090600160a060020a0383811691161415612c3b57506001610e22565b506000610e22565b612c4c33612c1a565b612c5557600080fd5b600160a060020a03811660009081526009602052604090819020805460ff19166001179055517faf77f8960cf590e245ec8b6d41c193a5dcacad8986ae4eb57ac9e5be7b6af03190611541908390613cd1565b6000602081815291815260409081902080546001808301546002808501805487519481161561010002600019011691909104601f81018890048802840188019096528583529295909491929190830182828015612d465780601f10612d1b57610100808354040283529160200191612d46565b820191906000526020600020905b815481529060010190602001808311612d2957829003601f168201915b5050505060038301805460408051602060026001851615610100026000190190941693909304601f8101849004840282018401909252818152949594935090830182828015612dd65780601f10612dab57610100808354040283529160200191612dd6565b820191906000526020600020905b815481529060010190602001808311612db957829003601f168201915b50505050600483015460058401805460408051602060026001851615610100026000190190941693909304601f81018490048402820184019092528181529596939593945090830182828015612e6d5780601f10612e4257610100808354040283529160200191612e6d565b820191906000526020600020905b815481529060010190602001808311612e5057829003601f168201915b5050505060068301805460408051602060026001851615610100026000190190941693909304601f8101849004840282018401909252818152949594935090830182828015612efd5780601f10612ed257610100808354040283529160200191612efd565b820191906000526020600020905b815481529060010190602001808311612ee057829003601f168201915b5050505060078301805460408051602060026001851615610100026000190190941693909304601f8101849004840282018401909252818152949594935090830182828015612f8d5780601f10612f6257610100808354040283529160200191612f8d565b820191906000526020600020905b815481529060010190602001808311612f7057829003601f168201915b5050505060088301805460408051602060026001851615610100026000190190941693909304601f810184900484028201840190925281815294959493509083018282801561301d5780601f10612ff25761010080835404028352916020019161301d565b820191906000526020600020905b81548152906001019060200180831161300057829003601f168201915b5050505050905089565b60086020526000908152604090205460ff1681565b3360009081526005602052604090205460ff161561305957600080fd5b3360008181526005602090815260408083208054600160ff199182168117909255600684528285208054909116821790556019805482019055815160c0810183528581528084018b81528184018b9052606082018a90526080820189905260a0820188905295855260028452919093208151815473ffffffffffffffffffffffffffffffffffffffff1916600160a060020a039091161781559351805191949361310993908501929101906133e5565b50604082015160028201556060820151805161312f9160038401916020909101906133e5565b506080820151805161314b9160048401916020909101906133e5565b5060a082015180516131679160058401916020909101906133e5565b5050601580546001810182556000919091527f55f448fdea98c4d29eb340757ef0a66cd03dbb9538908a6a81d96026b71ec47501805473ffffffffffffffffffffffffffffffffffffffff1916339081179091556040519091507f89105a1c6a3c2fbd471255c66a31ccab604af5697f67d7e2e9a0028c5e4dbd91906131ee904290613f35565b60405180910390a25050505050565b60009081526020819052604090206004015490565b600160a060020a03811660009081526006602052604081205460ff1615610e2257506001610e22565b3360009081526005602052604090205460ff168015613270575033600081815260036020526040902054600160a060020a0316145b61327957600080fd5b336000908152600360209081526040909120855161329f926001909201918701906133e5565b503360009081526003602081815260409092206002810186905584516132cd939190920191908501906133e5565b5033600090815260036020908152604090912082516132f4926004909201918401906133e5565b5050505050565b601a5490565b6016818154811061269157fe5b6000908152600460208181526040808420600181015460028201546003830154600f8652939096205493859052930154600160a060020a03938416959390941693909260ff90921691565b60056020526000908152604090205460ff1681565b61337733612c1a565b61338057600080fd5b6000818152600c60209081526040808320805460ff19908116600117909155600d90925291829020805490911690555181907f846446ebf0cb94a7264fe2a2fb06aec805614ff6870f14865ea07a42bf70081190611161904290613f84565b601b5481565b828054600181600116156101000203166002900490600052602060002090601f016020900481019282601f1061342657805160ff1916838001178555613453565b82800160010185558215613453579182015b82811115613453578251825591602001919060010190613438565b5061345f929150613463565b5090565b610eec91905b8082111561345f5760008155600101613469565b803561348881614192565b92915050565b8035613488816141a9565b600082601f8301126134aa57600080fd5b81356134bd6134b8826140f9565b6140d2565b915080825260208301602083018583830111156134d957600080fd5b6134e4838284614150565b50505092915050565b6000602082840312156134ff57600080fd5b600061350b848461347d565b949350505050565b6000806040838503121561352657600080fd5b6000613532858561347d565b92505060206135438582860161348e565b9150509250929050565b60008060006060848603121561356257600080fd5b600061356e868661347d565b935050602061357f8682870161348e565b92505060406135908682870161348e565b9150509250925092565b6000602082840312156135ac57600080fd5b600061350b848461348e565b6000806000606084860312156135cd57600080fd5b833567ffffffffffffffff8111156135e457600080fd5b6135f086828701613499565b93505060206136018682870161348e565b925050604084013567ffffffffffffffff81111561361e57600080fd5b61359086828701613499565b6000806000806080858703121561364057600080fd5b843567ffffffffffffffff81111561365757600080fd5b61366387828801613499565b94505060206136748782880161348e565b935050604085013567ffffffffffffffff81111561369157600080fd5b61369d87828801613499565b925050606085013567ffffffffffffffff8111156136ba57600080fd5b6136c687828801613499565b91505092959194509250565b600080600080600060a086880312156136ea57600080fd5b853567ffffffffffffffff81111561370157600080fd5b61370d88828901613499565b955050602061371e8882890161348e565b945050604086013567ffffffffffffffff81111561373b57600080fd5b61374788828901613499565b935050606086013567ffffffffffffffff81111561376457600080fd5b61377088828901613499565b925050608086013567ffffffffffffffff81111561378d57600080fd5b61379988828901613499565b9150509295509295909350565b60008060008060008060c087890312156137bf57600080fd5b863567ffffffffffffffff8111156137d657600080fd5b6137e289828a01613499565b96505060206137f389828a0161348e565b955050604087013567ffffffffffffffff81111561381057600080fd5b61381c89828a01613499565b945050606087013567ffffffffffffffff81111561383957600080fd5b61384589828a01613499565b935050608087013567ffffffffffffffff81111561386257600080fd5b61386e89828a01613499565b92505060a087013567ffffffffffffffff81111561388b57600080fd5b61389789828a01613499565b9150509295509295509295565b600080604083850312156138b757600080fd5b60006138c3858561348e565b92505060206135438582860161347d565b600080600080600080600080610100898b0312156138f157600080fd5b60006138fd8b8b61348e565b985050602089013567ffffffffffffffff81111561391a57600080fd5b6139268b828c01613499565b975050604089013567ffffffffffffffff81111561394357600080fd5b61394f8b828c01613499565b96505060606139608b828c0161348e565b955050608089013567ffffffffffffffff81111561397d57600080fd5b6139898b828c01613499565b94505060a089013567ffffffffffffffff8111156139a657600080fd5b6139b28b828c01613499565b93505060c089013567ffffffffffffffff8111156139cf57600080fd5b6139db8b828c01613499565b92505060e089013567ffffffffffffffff8111156139f857600080fd5b613a048b828c01613499565b9150509295985092959890939650565b6000613a208383613a28565b505060200190565b613a3181614134565b82525050565b6000613a4282614127565b613a4c818561412b565b9350613a5783614121565b8060005b83811015613a85578151613a6f8882613a14565b9750613a7a83614121565b925050600101613a5b565b509495945050505050565b613a318161413f565b6000613aa482614127565b613aae818561412b565b9350613abe81856020860161415c565b613ac781614188565b9093019392505050565b6000613adc82614127565b613ae68185610e22565b9350613af681856020860161415c565b9290920192915050565b6000613b0d600c8361412b565b7f416c726561647920706169640000000000000000000000000000000000000000815260200192915050565b6000613b4660248361412b565b7f50494420616c72656164792072656769737465726564206f6e20626c6f636b6381527f6861696e00000000000000000000000000000000000000000000000000000000602082015260400192915050565b6000613ba560208361412b565b7f537572766579206e756d62657220616c72656164792072656769737465726564815260200192915050565b6000613bde60068361412b565b7f53656c6c65720000000000000000000000000000000000000000000000000000815260200192915050565b6000613c17601e8361412b565b7f52657175657374206e6f7420617070726f7665642062792073656c6c65720000815260200192915050565b6000613c5060188361412b565b7f4e6f742074686520617574686f72697a65642062757965720000000000000000815260200192915050565b6000613c8960058361412b565b7f4275796572000000000000000000000000000000000000000000000000000000815260200192915050565b613a3181610eec565b6000613cca8284613ad1565b9392505050565b602081016134888284613a28565b60a08101613ced8288613a28565b613cfa6020830187613a28565b613d076040830186613cb5565b613d146060830185613a90565b613d216080830184613cb5565b9695505050505050565b60c08101613d398289613a28565b8181036020830152613d4b8188613a99565b9050613d5a6040830187613cb5565b8181036060830152613d6c8186613a99565b90508181036080830152613d808185613a99565b905081810360a0830152613d948184613a99565b98975050505050505050565b60e08101613dae828a613a28565b8181036020830152613dc08189613a99565b9050613dcf6040830188613cb5565b8181036060830152613de18187613a99565b90508181036080830152613df58186613a99565b905081810360a0830152613e098185613a99565b905081810360c0830152613e1d8184613a99565b9998505050505050505050565b60208082528101613cca8184613a37565b602081016134888284613a90565b60208082528101613cca8184613a99565b60a08082528101613e6b8188613a99565b9050613e7a6020830187613cb5565b8181036040830152613e8c8186613a99565b90508181036060830152613ea08185613a99565b90508181036080830152613eb48184613a99565b979650505050505050565b60c08082528101613ed08189613a99565b9050613edf6020830188613cb5565b8181036040830152613ef18187613a99565b90508181036060830152613d6c8186613a99565b6020808252810161348881613b00565b6020808252810161348881613b39565b6020808252810161348881613b98565b60408082528101613f4581613bd1565b90506134886020830184613cb5565b6020808252810161348881613c0a565b6020808252810161348881613c43565b60408082528101613f4581613c7c565b602081016134888284613cb5565b60a08101613fa08288613cb5565b613fad6020830187613a28565b613fba6040830186613a28565b613d146060830185613cb5565b60808101613fd58287613cb5565b8181036020830152613fe78186613a99565b9050613ff66040830185613cb5565b8181036060830152613d218184613a99565b604081016140168285613cb5565b613cca6020830184613cb5565b6101208101614032828c613cb5565b61403f602083018b613cb5565b8181036040830152614051818a613a99565b905081810360608301526140658189613a99565b90506140746080830188613cb5565b81810360a08301526140868187613a99565b905081810360c083015261409a8186613a99565b905081810360e08301526140ae8185613a99565b90508181036101008301526140c38184613a99565b9b9a5050505050505050505050565b60405181810167ffffffffffffffff811182821017156140f157600080fd5b604052919050565b600067ffffffffffffffff82111561411057600080fd5b506020601f91909101601f19160190565b60200190565b5190565b90815260200190565b600061348882614144565b151590565b600160a060020a031690565b82818337506000910152565b60005b8381101561417757818101518382015260200161415f565b838111156119e25750506000910152565b601f01601f191690565b61419b81614134565b81146141a657600080fd5b50565b61419b81610eec56fea365627a7a72315820d5cc9183d9d1a69980981501907229d7505e58ccb99f5638cfd73ae5ff36dec16c6578706572696d656e74616cf564736f6c63430005100040",
  "source": "pragma solidity >= 0.5.2;\npragma experimental ABIEncoderV2;\ncontract Land {\n    struct Landreg {\n        uint id;\n        uint area;\n        string city;\n        string state;\n        uint landPrice;\n        string propertyPID;\n        string physicalSurveyNumber;\n        string ipfsHash;\n        string document;\n    }\n\n    struct Buyer{\n        address id;\n        string name;\n        uint age;\n        string city;\n        string email;\n        string verificationId;\n        string documentHash;\n    }\n\n    struct Seller{\n        address id;\n        string name;\n        uint age;\n        string landsOwned;\n        string verificationId;\n        string documentHash;\n    }\n\n    struct LandInspector {\n        uint id;\n        string name;\n        uint age;\n        string designation;\n    }\n\n    struct LandRequest{\n        uint reqId;\n        address sellerId;\n        address buyerId;\n        uint landId;\n        uint offerPrice;\n    }\n\n    //key value pairs\n    mapping(uint => Landreg) public lands;\n    mapping(uint => LandInspector) public InspectorMapping;\n    mapping(address => Seller) public SellerMapping;\n    mapping(address => Buyer) public BuyerMapping;\n    mapping(uint => LandRequest) public RequestsMapping;\n\n    mapping(address => bool) public RegisteredAddressMapping;\n    mapping(address => bool) public RegisteredSellerMapping;\n    mapping(address => bool) public RegisteredBuyerMapping;\n    mapping(address => bool) public SellerVerification;\n    mapping(address => bool) public SellerRejection;\n    mapping(address => bool) public BuyerVerification;\n    mapping(address => bool) public BuyerRejection;\n    mapping(uint => bool) public LandVerification;\n    mapping(uint => bool) public LandRejection;\n    mapping(uint => address) public LandOwner;\n    mapping(uint => bool) public RequestStatus;\n    mapping(uint => bool) public RequestedLands;\n    mapping(uint => bool) public PaymentReceived;\n\n    mapping(bytes32 => bool) public registeredPIDs;\n    mapping(bytes32 => bool) public registeredSurveyNumbers;\n\n    address public Land_Inspector;\n    address[] public sellers;\n    address[] public buyers;\n\n    uint public landsCount;\n    uint public inspectorsCount;\n    uint public sellersCount;\n    uint public buyersCount;\n    uint public requestsCount;\n\n    event UserRegistered(address indexed user, string role, uint timestamp);\n    event LandAdded(uint indexed landId, address indexed owner, uint timestamp);\n    event LandRequested(uint indexed reqId, address indexed buyer, uint landId, uint timestamp);\n    event RequestApproved(uint indexed reqId, address indexed seller, uint timestamp);\n    event PaymentDone(address indexed buyer, address indexed seller, uint reqId, uint amount);\n    event OwnershipTransferred(uint indexed landId, address indexed newOwner, uint timestamp);\n    event Verified(address _id);\n    event Rejected(address _id);\n    event LandVerifiedEvent(uint indexed landId, uint timestamp);\n    event LandRejectedEvent(uint indexed landId, uint timestamp);\n\n    constructor() public{\n        Land_Inspector = msg.sender ;\n        addLandInspector(\"Inspector 1\", 45, \"Tehsil Manager\");\n    }\n\n    function addLandInspector(string memory _name, uint _age, string memory _designation) private {\n        inspectorsCount++;\n        InspectorMapping[inspectorsCount] = LandInspector(inspectorsCount, _name, _age, _designation);\n    }\n\n    function getLandsCount() public view returns (uint) {\n        return landsCount;\n    }\n\n    function getBuyersCount() public view returns (uint) {\n        return buyersCount;\n    }\n\n    function getSellersCount() public view returns (uint) {\n        return sellersCount;\n    }\n\n    function getRequestsCount() public view returns (uint) {\n        return requestsCount;\n    }\n\n    function getArea(uint i) public view returns (uint) {\n        return lands[i].area;\n    }\n\n    function getCity(uint i) public view returns (string memory) {\n        return lands[i].city;\n    }\n\n    function getState(uint i) public view returns (string memory) {\n        return lands[i].state;\n    }\n\n    function getPrice(uint i) public view returns (uint) {\n        return lands[i].landPrice;\n    }\n\n    function getPID(uint i) public view returns (string memory) {\n        return lands[i].propertyPID;\n    }\n\n    function getSurveyNumber(uint i) public view returns (string memory) {\n        return lands[i].physicalSurveyNumber;\n    }\n\n    function getImage(uint i) public view returns (string memory) {\n        return lands[i].ipfsHash;\n    }\n\n    function getDocument(uint i) public view returns (string memory) {\n        return lands[i].document;\n    }\n\n    function getLandOwner(uint id) public view returns (address) {\n        return LandOwner[id];\n    }\n\n    function verifySeller(address _sellerId) public{\n        require(isLandInspector(msg.sender));\n\n        SellerVerification[_sellerId] = true;\n        emit Verified(_sellerId);\n    }\n\n    function rejectSeller(address _sellerId) public{\n        require(isLandInspector(msg.sender));\n\n        SellerRejection[_sellerId] = true;\n        emit Rejected(_sellerId);\n    }\n\n    function verifyBuyer(address _buyerId) public{\n        require(isLandInspector(msg.sender));\n\n        BuyerVerification[_buyerId] = true;\n        emit Verified(_buyerId);\n    }\n\n    function rejectBuyer(address _buyerId) public{\n        require(isLandInspector(msg.sender));\n\n        BuyerRejection[_buyerId] = true;\n        emit Rejected(_buyerId);\n    }\n\n    function verifyLand(uint _landId) public{\n        require(isLandInspector(msg.sender));\n\n        LandVerification[_landId] = true;\n        LandRejection[_landId] = false;\n\n        emit LandVerifiedEvent(_landId, block.timestamp);\n    }\n\n    function rejectLand(uint _landId) public{\n        require(isLandInspector(msg.sender));\n\n        LandRejection[_landId] = true;\n        LandVerification[_landId] = false;\n\n        emit LandRejectedEvent(_landId, block.timestamp);\n    }\n\n    function isLandVerified(uint _id) public view returns (bool) {\n        if(LandVerification[_id]){\n            return true;\n        }\n    }\n\n    function isLandRejected(uint _id) public view returns (bool) {\n        if(LandRejection[_id]){\n            return true;\n        }\n    }\n\n    function isVerified(address _id) public view returns (bool) {\n        if(SellerVerification[_id] || BuyerVerification[_id]){\n            return true;\n        }\n    }\n\n    function isRejected(address _id) public view returns (bool) {\n        if(SellerRejection[_id] || BuyerRejection[_id]){\n            return true;\n        }\n    }\n\n    function isSeller(address _id) public view returns (bool) {\n        if(RegisteredSellerMapping[_id]){\n            return true;\n        }\n    }\n\n    function isLandInspector(address _id) public view returns (bool) {\n        if(Land_Inspector == _id){\n            return true;\n        }else{\n            return false;\n        }\n    }\n\n    function isBuyer(address _id) public view returns (bool) {\n        if(RegisteredBuyerMapping[_id]){\n            return true;\n        }\n    }\n\n    function isRegistered(address _id) public view returns (bool) {\n        if(RegisteredAddressMapping[_id]){\n            return true;\n        }\n    }\n\n    function addLand(uint _area, string memory _city, string memory _state, uint landPrice, string memory _propertyPID, string memory _surveyNum, string memory _ipfsHash, string memory _document) public {\n        require((isSeller(msg.sender)) && (isVerified(msg.sender)));\n\n        bytes32 pidHash = keccak256(abi.encodePacked(_propertyPID));\n        bytes32 surveyHash = keccak256(abi.encodePacked(_surveyNum));\n        require(!registeredPIDs[pidHash], \"PID already registered on blockchain\");\n        require(!registeredSurveyNumbers[surveyHash], \"Survey number already registered\");\n\n        registeredPIDs[pidHash] = true;\n        registeredSurveyNumbers[surveyHash] = true;\n\n        landsCount++;\n        lands[landsCount] = Landreg(landsCount, _area, _city, _state, landPrice, _propertyPID, _surveyNum, _ipfsHash, _document);\n        LandOwner[landsCount] = msg.sender;\n\n        emit LandAdded(landsCount, msg.sender, block.timestamp);\n    }\n\n    //registration of seller\n    function registerSeller(string memory _name, uint _age, string memory _landsOwned, string memory _verificationId, string memory _documentHash) public {\n        //require that Seller is not already registered\n        require(!RegisteredAddressMapping[msg.sender]);\n\n        RegisteredAddressMapping[msg.sender] = true;\n        RegisteredSellerMapping[msg.sender] = true ;\n        sellersCount++;\n        SellerMapping[msg.sender] = Seller(msg.sender, _name, _age, _landsOwned, _verificationId, _documentHash);\n        sellers.push(msg.sender);\n\n        emit UserRegistered(msg.sender, \"Seller\", block.timestamp);\n    }\n\n    function updateSeller(string memory _name, uint _age, string memory _landsOwned) public {\n        //require that Seller is already registered\n        require(RegisteredAddressMapping[msg.sender] && (SellerMapping[msg.sender].id == msg.sender));\n\n        SellerMapping[msg.sender].name = _name;\n        SellerMapping[msg.sender].age = _age;\n        SellerMapping[msg.sender].landsOwned = _landsOwned;\n    }\n\n    function getSeller() public view returns( address [] memory ){\n        return(sellers);\n    }\n\n    function getSellerDetails(address i) public view returns (string memory, uint, string memory, string memory, string memory) {\n        return (SellerMapping[i].name, SellerMapping[i].age, SellerMapping[i].landsOwned, SellerMapping[i].verificationId, SellerMapping[i].documentHash);\n    }\n\n    function registerBuyer(string memory _name, uint _age, string memory _city, string memory _email, string memory _verificationId, string memory _documentHash) public {\n        //require that Buyer is not already registered\n        require(!RegisteredAddressMapping[msg.sender]);\n\n        RegisteredAddressMapping[msg.sender] = true;\n        RegisteredBuyerMapping[msg.sender] = true ;\n        buyersCount++;\n        BuyerMapping[msg.sender] = Buyer(msg.sender, _name, _age, _city, _email, _verificationId, _documentHash);\n        buyers.push(msg.sender);\n\n        emit UserRegistered(msg.sender, \"Buyer\", block.timestamp);\n    }\n\n    function updateBuyer(string memory _name, uint _age, string memory _city, string memory _email) public {\n        //require that Buyer is already registered\n        require(RegisteredAddressMapping[msg.sender] && (BuyerMapping[msg.sender].id == msg.sender));\n\n        BuyerMapping[msg.sender].name = _name;\n        BuyerMapping[msg.sender].age = _age;\n        BuyerMapping[msg.sender].city = _city;\n        BuyerMapping[msg.sender].email = _email;\n    }\n\n    function getBuyer() public view returns( address [] memory ){\n        return(buyers);\n    }\n\n    function getBuyerDetails(address i) public view returns (string memory, uint, string memory, string memory, string memory, string memory) {\n        return (BuyerMapping[i].name, BuyerMapping[i].age, BuyerMapping[i].city, BuyerMapping[i].email, BuyerMapping[i].verificationId, BuyerMapping[i].documentHash);\n    }\n\n    function requestLand(address _sellerId, uint _landId, uint _offerPrice) public{\n        require(isBuyer(msg.sender) && isVerified(msg.sender));\n\n        requestsCount++;\n        RequestsMapping[requestsCount] = LandRequest(requestsCount, _sellerId, msg.sender, _landId, _offerPrice);\n        RequestStatus[requestsCount] = false;\n        RequestedLands[requestsCount] = true;\n\n        emit LandRequested(requestsCount, msg.sender, _landId, block.timestamp);\n    }\n\n    function getRequestDetails (uint i) public view returns (address, address, uint, bool, uint) {\n        return(RequestsMapping[i].sellerId, RequestsMapping[i].buyerId, RequestsMapping[i].landId, RequestStatus[i], RequestsMapping[i].offerPrice);\n    }\n\n    function isRequested(uint _id) public view returns (bool) {\n        if(RequestedLands[_id]){\n            return true;\n        }\n    }\n\n    function isApproved(uint _id) public view returns (bool) {\n        if(RequestStatus[_id]){\n            return true;\n        }\n    }\n\n    function approveRequest(uint _reqId) public {\n        require((isSeller(msg.sender)) && (isVerified(msg.sender)));\n\n        RequestStatus[_reqId] = true;\n\n        emit RequestApproved(_reqId, msg.sender, block.timestamp);\n    }\n\n    function LandOwnershipTransfer(uint _landId, address _newOwner) public{\n        require(isLandInspector(msg.sender));\n\n        LandOwner[_landId] = _newOwner;\n\n        emit OwnershipTransferred(_landId, _newOwner, block.timestamp);\n    }\n\n    function isPaid(uint _reqId) public view returns (bool) {\n        if(PaymentReceived[_reqId]){\n            return true;\n        }\n    }\n\n    function payment(address payable _receiver, uint _reqId) public payable {\n        require(RequestsMapping[_reqId].buyerId == msg.sender, \"Not the authorized buyer\");\n        require(RequestStatus[_reqId] == true, \"Request not approved by seller\");\n        require(!PaymentReceived[_reqId], \"Already paid\");\n\n        PaymentReceived[_reqId] = true;\n        _receiver.transfer(msg.value);\n\n        emit PaymentDone(msg.sender, _receiver, _reqId, msg.value);\n    }\n}\n",
  "sourcePath": "/Users/manishn/code/Sindhu/Land-Registration-with-Blockchain/contracts/Land.sol",
  "compiler": {
    "name": "solc",
    "version": "0.5.16+commit.9c3226ce.Emscripten.clang"
  },
  "schemaVersion": "3.4.16",
  "updatedAt": "2026-05-29T19:36:17.310Z",
  "networkType": "ethereum",
  "devdoc": {
    "methods": {}
  },
  "userdoc": {
    "methods": {}
  }
}